:20000000A03A0120494A010039FB021039FB021039FB021039FB021039FB021039FB0210AD
:1C00200039FB021039FB021039FB021039FB021039FB021039FB021011FB021002
:20003C00843800202431002098370020CC31002000000000E43400208C3800207036002065
:20005C00A8370020603200201C1700003C1B0000D41B0000581B00004A1B0000B837002073
:20007C00A0080020A4080020A8080020AC080020B0080020B4080020B8080020BC080020B4
:20009C00C0080020C8370020603100205C3700208C32002036130000C8120000A413000021
:2000BC001214000080140000F8190000801B0000741B0000E238002024380020180B002036
:2000DC008C360020000A0020393800203A380020E032002070370020A0040020C40800202C
:2000FC004012000079100000B015000000040020F01A0000D02C0020DC380020D838002096
:20011C00C8080020CC080020C8380020DC160000F4360020542E00200000000000000000E1
:20013C00B80B0020000000000000000000000000000000006C080020482A0020A80A0020C8
:20015C00014A031049480310D549031015470310E1F200005D49031081470310A146031080
:20017C009548031045450310254A031021440310ED47031099490310E148031021490310E7
:20019C005553031089520310CD520310655003108D4E031049F80000D50B0100E135010079
:2001BC000000000059510310ED500310E52A0100CD4B03102952031011530310A9550310C5
:2001DC007555031069530310DD55031035550310B554031021540310855C03100D56031067
:2001FC004D5D0310A9640310B55B03106D570310E5610310095E0310C55803108560031011
:20021C0071610310B16203109963031055630310FD600310B15E0310F1D60000D55A031042
:20023C00D559031009630310D963031019640310555F0310C56403104D6203107164031056
:20025C008D64031055640310E16403102975031079720310A16B0310F57203109D740310EE
:20027C00797403102D74031061730310FD7303105574031015750310D96C0310FD740310EF
:20029C00616A0310E17403103D75031079700310F9640310CD6803102D710310C17403108A
:2002BC00F56E0310B973031029670310056E0310C56F0310E1710310A1770310797D031064
:2002DC003D7E031049750310157E0310357D031099760310997C0310257B031071780310FF
:2002FC00B57D0310ED7C0310857E03102D790310B97A0310917B0310B1790310ED7B031035
:20031C00E97D0310617E0310357A0310D57E0310457C0310A57E0310BD7E0310058003103E
:20033C00D9800310E97E031049830310898403108D8103107D820310E58403102B8403104B
:20035C00C5830310918703106188031045880310F1850310B18803107D880310C9880310CE
:20037C001D870310A186031001850310E188031099880310F98703107D960310359C03108A
:20039C00819D0310E99A0310359B0310C19B0310419A0310F18803101D8C0310618F0310EF
:2003BC00F1940310919E0310C19E03103D9E0310699E0310259E0310619D03100D9E031028
:2003DC00819B0310ED93031055990310C9970310D9980310BD950310959C0310C19D03102D
:2003FC00A59E03107D9E0310C99103105D140100699C0310DD9D031095900310FD9B0310F6
:20041C00CD990310158E0310019D0310E19C0310219D0310419D0310BD9C0310F59D03107D
:20043C00A19D031055980310E1920310999A0310B99E0310559E0310CD760100CB9401006F
:20045C0039A20310F38F010069A1031075A20310C59E0310B9A10310F9A1031015A103106F
:20047C009DA20310A1A0010097570000FD75010091950100D19F0100F91B010031A90310D1
:20049C00ADA2031045AB0000B9A8031099A5031041EA000039A803106DA9031089A603109F
:2004BC006DAC031099B1031009AF031059B1031001B103109DA90310AB1701001B1701009B
:2004DC00BD07010075F100008D0D01008D160100E5FA0000ED080100E51A0100A51F0100FC
:2004FC00F5050100F1B9031075BA031081BB031039780100410B0100213E0100CDDB000090
:20051C0079680100B53901008D7D01001D3A0100A9710100B9890100ED920100ED4101007E
:20053C00E55801002D7D01006D7801002128010059970100B1200100F56401007197010060
:20055C003B2501002D270100E1760000658E0000E9C60310BB250100D98F0000817A010078
:20057C00C12101005970010091F30000D1A10100E5940100497A010035210100514B010089
:20059C00E91401007110010001000000000000000000000000000000FFFFFFFF800C002016
:2005BC000400000000000000000000001400000030FD021018000000281C00006406000002
:2005DC00580C00200400000000000000000000002400000018FD0210180000007998010002
:2005FC00080000005407000018060000C1C8021001BB021091EB0210DDE5021081E0021020
:20061C00B9E5021071E50210310000000100000001000000881C000000000000FFFFFFFFD3
:20063C00780C002004000000000000000000000028000000B8FC0210240000001E000000C6
:20065C001800000000000000CC080000780600009BEC021025E2021005EB021025DE02104B
:20067C00FDE10210E1E402102F000000340000002400280000000000C00A0020FFFFFFFF02
:20069C00A00C0020040000000000000000000000380000006CFC0210280000000100000093
:2006BC00100000000000000000000000F7F1021000001A001000000003000000C81B000004
:2006DC009F1A00000800000036000000480A00200009002009001D00E7B400000008002083
:2006FC000100000000001200FFFFFFFF900C002004000000000000000000000010000000FF
:20071C0048FD0210180000000000000000001300FFFFFFFFA80C0020040000000000000067
:20073C000000000054000000A0FB02103C000000000001002D000000A805000083AE000054
:20075C0030000000F99A0100540700007C07000059D20210D9DB021059EC0210CDD60210CC
:20077C0085DE02104DE5021029E5021030000000000016000000000000000000FF7F0000C0
:20079C001C060020FFFFFFFF880C002004000000000000000000000058000000DCFB021006
:2007BC003400000039FB021001002F00060000000000000020000000010000001BF8021027
:2007DC0028000000CC080000F407000093EC02106DEB02104DEC021029E00210BDE40210F2
:2007FC0099E402102D00000000000000600C00200400000000000000000000001000000081
:20081C0040FC02102C000000000000000000030000000F003C0000000000000000000000F4
:20083C002FF902101000000008000000781A0000FFFFFFFF980C00200400000000000000F4
:20085C00000000001C000000DCFC021024000000E0070000480C00200400000000000000F3
:20087C00000000000C00000000FD0210180000006BC60000000000000000000008000000F0
:20089C0001000000040000000000000000001400000000004C160000000019000000180090
:2008BC0024000000BD3601000040000000020000A80500000000100055F002100C000000A2
:2008DC00F3B5000000000000400C00200400000000000000000000002000000010FC0210A6
:2008FC0030000000641600000100000031A2010043AB000000000000000017000002000056
:20091C003100000000002300000015000100000064070000700C0020040000000000000046
:20093C00000000002000000094FC0210240000007C160000F00B0020200000004C18000084
:20095C0000000000000000000000000000000000000000000000000000000000000000007B
:20097C00000000000000000000000000000000000000000000000000090803100101031022
:20099C00890903105D0303100105031089060310D1080310210A0310810B0310810A031001
:2009BC00110B0310510B0310D10A031029100310610D0310890E0310050E0310B50F03101B
:2009DC00D10B0310511003103D10031065100310FD0E0310ED0F0310B50C0310650F031028
:2009FC00111003106910031009120310F5120310AD110310291103105D120310B11203105D
:200A1C0019250310552703108D240310F12603100528031089260310CD2303105928031053
:200A3C00ED1F0310251303100D210310911D0310B12703100D2203109925031019260310DE
:200A5C00A91B0310CF2803109528031039290310052903106D29031099160310C91E0310AE
:200A7C007D1903100D230310C92C03101D2C0310292D0310B52B0310F52C03109D290310A1
:200A9C00CD2A0310452B0310472D0310112D0310412D0310752C031029340310C138031024
:200ABC0071360310A12E0310813303106D380310A93A03103D3A0310C53403101138031017
:200ADC00753A03104D2D031009320310E12F031015390310F939031019310310B13703103C
:200AFC00F5350310B13903105D350310C5320310E5360310693903104D370310253D031002
:200B1C00413D0310F53C0310C93A0310A53C03109D3D0310593D031019430310CD3D0310B8
:200B3C00A14303104D400310093F031061420310CD400310C9430310E5430310C93F03105C
:200B5C0011440310FD4303101F440310A942031019420310E1420310C141031075430310C6
:200B7C0049430310494103101B440310AD0B031035750000E57E00006D9500004FA10100E0
:200B9C004DA30000AD920000ED8C0000FDB90000B5B10000A83800203C2020202020204336
:200BBC004F4E4649475552452020202020203E003C2020202020205345542050414E494448
:200BDC002020202020203E003C20202020534554204348414E204D41534B202020203E000F
:200BFC003C2020202020204241434B2020202020203E00C03C2020204E4554574F524B2028
:200C1C00414354494F4E532020203E003C20202020202020464F524D204E574B2020202029
:200C3C0020203E003C202020202020204F50454E204E574B2020202020203E003C20202022
:200C5C0020202020434C4F5345204E574B20202020203E003C2020202020202020204150A7
:200C7C00502020202020202020203E003C202020202053454C4543542053454E534F5220F4
:200C9C0020203E003C20534554205245504F525420494E54455256414C203E003C202020F7
:200CBC00202053454E4420544F47474C4520202020203E003C2053454E44204449534153D4
:200CDC00534F43494154494F4E203E003C202053454E4420545950452052455155455354A0
:200CFC0020203E0020544920436F6C6C6563746F722000C03C20202020202048454C5020B1
:200D1C0020202020203E00C06D400021D740002199400021F94000210541002111410021E5
:200D3C002941002141410021074C657900F009F861796940490703D50121044A890311602F
:200D5C0070BD70B50249084780030021081104402D59000000F019F8E1B26C290BD00428D4
:200D7C0001D0062807D10E490978C90703D12178090700D402200B490A780C21114202D03D
:200D9C00094980220A6003B0F0BDF0B583B007490847044801784022914301700448004703
:200DBC00C80000213301002100E200E041160300231B030000F034F800480047577F0000FB
:200DDC0000F034F8004800471B880000094B1A780824A243002800D022431A70004A10472A
:200DFC00838E000003490878000701D40248004770470000800300215F7E0000044A2820BF
:200E1C0090470448012141600348044A416010474F420000005004400060044085420000AF
:200E3C00806B0C490007000F48717047094A0A4918235079CB56497EC018814201DD084677
:200E5C0002E00F2800DD0F20D189090909010143D1817047E0020021880000210020202082
:200E7C002020202020202828282828202020202020202020202020202020202020881010E6
:200E9C001010101010101010101010101044444444444444444444101010101010104141CC
:200EBC0041414141010101010101010101010101010101010101010110101010101042421A
:200EDC00424242420202020202020202020202020202020202020202101010102000000066
:200EFC000000000000000000000000000000000000000000000000000000000000000000D6
:200F1C000000000000000000000000000000000000000000000000000000000000000000B5
:200F3C00000000000000000000000000000000000000000000000000000000000000000095
:200F5C0000000000000000000000000000000000000000000000000000000000000097B925
:200F7C002EE5725CCB5DCAE473B82F0196BA2D03945FC8E671E7705EC90295BB2CE3745A04
:200F9C00CD0691BF28BE2907905BCCE27559CEE077BC2B05920493BD2AE17658CF51C6E8F7
:200FBC007FB4230D9A0C9BB522E97E50C7EB7C52C50E99B720B6210F9853C4EA7DB2250B42
:200FDC009C57C0EE79EF7856C10A9DB324089FB126ED7A54C355C2EC7BB027099EA2351BF5
:200FFC008C47D0FE69FF6846D11A8DA334188FA136FD6A44D345D2FC6BA037198E41D6F8C8
:20101C006FA4331D8A1C8BA532F96E40D7FB6C42D51E89A730A6311F8843D4FA6DF3644A32
:20103C00DD1681AF38AE3917804BDCF26549DEF067AC3B15821483AD3AF16648DF1087A905
:20105C003EF5624CDB4DDAF463A83F1186AA3D13844FD8F661F7604ED91285AB3C0001368D
:20107C003601010001020100010301000104010606080400000C0100340D01000F10040182
:20109C0001140100FF1608000020020000220100FF23010001240100FE250100082602001F
:2010BC000028010001290100012A0200002C01000F2E020000300100013101000832020087
:2010DC00FF34010007350102FF360100003701000138010001390100FF3A01000F3C020017
:2010FC00FF3E01010F3F0100014001041F41010001420100FF43010080440800004E0100FD
:20111C00084F01000F50010001510100FF5201000A5301008954010001580400005C04005D
:20113C00006004000064040000680400006C0400007004000074040000780400007C040003
:20115C0000800100FF81010001820100018301010284010001030003D80C0020E438002099
:20117C00E5380020D90C00203B380020DA0C0020DB0C0020ADA0010025690000C996010035
:20119C007D820100FD7C010011500100A14A01002D200100615101005186010069770100B1
:2011BC0099580100DBA10100E19A0100D98C010001770100718901002986010051820100CA
:2011DC0001710100D177010045F60000B5DF000057830100F55401000158010089A00100BF
:2011FC0095A00100C75B0000D591010097650000FD020100656101008DFB0000357701001C
:20121C00B9A00100798E01001197010000000000000000004D7D000029890100B52601004E
:20123C0039670100360001000600000000000000000F0000000000000000000000000000A5
:20125C0000000300FFFF00000403FFFF0000FFFF0F00E8030005401F0310000100000000FC
:20127C00FF3F0F0008000E0000000000000000000300010F000009010000000000000000D2
:20129C00000000000000000000000000000000000000000000000000000000000000000032
:2012BC0000000000AD00000100000000010171010101010111010101310101010101800121
:2012DC000001100161013B001400630173017201620143010001130106013D0135000401A9
:2012FC001201000100010001000104010401330133013C01440132013600000100016501F6
:20131C000001350081010001050182018301000166010001000108010901030071003001C9
:20133C00600011007000310220035004800007001000610000001400630073007200620050
:20135C00430000001300060000000000040012000000000000000000040004003700370089
:20137C003C02440000000000000000006500000035008100000005000000830000006600C6
:20139C000000000008000900030271023001600211027002010202020202800200021002EF
:2013BC0061023A0041006302730272026202430200021302380000020002040212020002CD
:2013DC0000020002000204020402370037003C02440200023900000200026502000235020E
:2013FC00810200020502820283020002660200020002080209020103710301030103010335
:20141C00010301032203020301030003100300030003000300030003000300034203000307
:20143C00240306030003000304031203250323032503230304030403000300030003440344
:20145C00000300032303000365032100350381030003050300030003000300032503230397
:20147C00080309030304710402046004110470040204020401040204000410046104000432
:20149C001404630473047204620443040004130406040004000404041204000400040004C0
:2014BC00000451046400000400040004440400040004000400046504000435048104640060
:2014DC000504000483040004660400040004080409040001F1980100F98C010011A001000A
:2014FC0001A00100E15B01009500010043260100295C0100B97A0100C95F0100913C010040
:20151C001129010099550100E183010031ED0000F1F60000D9B3000001DB0000DBFD0210C9
:20153C00DD89010011DC0210A1EE0000D9950100893A010071790100B9970100D95D0100F4
:20155C008F0000008F0001008F0002008F000300900000018F0001019000000290000003E6
:20157C008F0001048F0000058F0008048F0000048A000006510000007F0001003F00040055
:20159C003F0002003F0001007F0002008F0002048F00010238C40D00C800000081000000B4
:2015BC0032000F0100C50D00900100004000000096000501952B0D00C800000022000000D7
:2015DC0032000F0200000000000000000000000000000000000000000000000000000000AC
:2015FC000000000000000000000000000000000000000000000000000000000000000000CF
:20161C000000000000000000000000000000000000000000000000000000000000000000AE
:20163C00000000000000000000000000000000007B7374617469632D696E7374616E636509
:20165C002D6E616D657D00C07B656D7074792D696E7374616E63652D6E616D657D00C046E6
:20167C007B756E6B6E6F776E2D696E7374616E63652D6E616D657D00194701001FF902106B
:20169C0045F8021059F802106DF8021081F8021095F80210C1230100117F01007969010082
:2016BC00E57401006D8A0100999C0100598F0100C1720100579F010061980100C133010083
:2016DC00C003000080070000000F0000001E0000003C00000078000000F0000000E00100F2
:2016FC0000C003000080070000000F0000001E0000003C00000078000000F0000000F000C3
:20171C000000000002000000020000000A000000020000000200010000000000000000009A
:20173C0000000000000000000000000000000000000000000E000000043800000000000043
:20175C0000000000000188F94E90550000000000FF0710580000FC0100000000000000004D
:20177C00000000000000000001A20100634900007D7B0100A1900100114F0100BD90010023
:20179C0041220100815F0100F59F0100AD9F000007380000000000000000000000012103A3
:2017BC000F008000520798E00800C810B40900206403008005000000211F0100593D01002C
:2017DC0011A2010049910000739E0000BBEB0000D1560100A1CD00002BF20000FB0C0100ED
:2017FC005407000014180000919E0100A19E0100C19E0100B19E0100A17F0100B58A0100C5
:20181C00D58201003200000000B000401400000034000000FF000000000000000302FFFFE8
:20183C006434002020000000010300000000000015F9021001E602102DDA021045E7021040
:20185C0041D10210C9D30210A5DF02102DE4021061EA0210B969010000000000FFFFFFFF65
:20187C00FFFFFFFF00000000000000000101010100C201000300000000000000CC080000B2
:20189C00AC180000452C010001160100592B0100417F0100918A0100A98201002E00000022
:2018BC000338000000000000000000008201081014000084000000004E905500000000006B
:2018DC00FFFFFFFF0000000000000000000000003A013A010000000000000000000000007A
:2018FC000000000000000000000000000000000000000000000000000000000000000000CC
:20191C0098180000500C002004000000000000000000000020000000101A00001800000019
:20193C00FC170000680C002004000000000000000000000014000000941900001C00000003
:20195C0003048080024000800D2000800E2000800604808007048080FE00000005380000F7
:20197C000000000000000000000000000000000000000000000000001C000000000000002F
:20199C0000000000A81900000000000008000000000000000100000040420F0001000000CF
:2019BC00000000000000000000000000030800000000000000000000000164030000000098
:2019DC00000000000000000000000580000006800000078000000000000000000000050054
:2019FC00BD00B700B100BC001C00300038000800380102001800000000000000000000000B
:201A1C00201A000008000000000000001404C0A00A0480A0090480A008400080FE000000CF
:201A3C00A80B0020980B00200400000004000000FFFFFFFF0000000055EF00001394010004
:201A5C00010101000000000000000000060000000200000086000000820000000100000056
:201A7C0000000000000000000000010000000100001610160E18151C021203241858030205
:201A9C0010025800A82E0020EE140000D02E0020EF14000005000000D0070000C800000003
:201ABC00FF000000582D0020561C0000982D0020581C00000200000000000000FFFFFFFF9D
:201ADC00000000000000000020000000400000006000000088B22400881300001000000021
:201AFC0000000001000080800000808400208084004080841B5B324A1B5B32301B5B3F32AC
:201B1C00356C000100010203000100010001020001020000000000000000000000000000F9
:201B3C0000A6AAACA4A9A9A399B19ABCB6A8313118191A22311C1E20313134313131171943
:201B5C001A21241B1D1F3131333100000000000000000000000100000C0E020B040B0A07A5
:201B7C000800110F000120181A18182C34041E0084170000D4380020181C0000FF00010021
:201B9C000000000000000000D41700001829002024180000000000800020008000400080C1
:201BBC0000000080000400800008008025DD021031C8021075DF02100204020101010109E3
:201BDC0002000000010200030200010300BE040A00BE02081404C0A0FE000000FFFFFFFFD5
:201BFC00FFFFFFFFE803000000006400FF00000000000000674E010055C7000000E00400C9
:201C1C00008000000000000008000000000000000000000010040810181C10000810182060
:201C3C0004040810181C0000010203044E42434E0000FFFFFF96FFFFFFFF02010301000073
:201C5C00000000001000000001000000399901005D2F0100EFA7000051990100719C010068
:101C7C00499F0100D1A001000A000000F19501006C
:201C8C00E95F0000BD9A000000000000000000000000000009960100859B0100FD290100B1
:201CAC00499B010003E20000DB890000999B01000000000009A201007D2E010031340100F7
:201CCC0081910100850901000D9D0100F9D10000C95B00004D190100D98D010000000000EF
:201CEC00E94801002D91010079FD0000000000000000000000000000000000000000000071
:201D0C000000000000000000000000000000000000000000000000000000000000000000B7
:201D2C0000000000F19E0100F19E0100000000000000000000000000000000000000000077
:0C1D4C000000000000000000000000008B
:201D580010B5ADF1200DADF8081000900020ADF8100000208DF8160000208DF818000098A9
:201D780040788DF81400009880788DF8150043F29670C2F200000078401EADF80C00BDF8A5
:201D9800080028B100980121C17309E04FEA0808009943F29670C2F200000078401EC87391
:201DB80000208DF812009DF8121043F29670C2F200000078884240DD9DF815009DF81210EE
:201DD80088422CD09DF81200002101AA042315F0C7F89DF8060010F0030F04D09DF8180099
:201DF800401C8DF818009DF804007C2803D09DF80400782813D1F8208DF813009DF812004E
:201E18009DF81320062116F04FF99DF8123000999DF81320980000EBC30009180A769DF8B9
:201E38001200401C8DF812009DF8121043F29670C2F2000000788842BEDC9DF8181043F211
:201E58009670C2F200000078401E884204D100209BE14FEA0808C046BDF80C00002800F077
:201E78003E814FEA0808C0460098C07B10B900980121C1739DF81400002101AA042315F011
:201E98006FF8BDF8080058B39DF8060010F0030F26D09DF8140043F29671C2F200010A783C
:201EB800401C90FBF2F15143401A8DF8140000984FF40051018200999DF814004873009974
:201ED800C87B401EC873BDF80C00401EADF80C00BDF81000401CADF81000FBE04FEA080844
:201EF8009DF80400702805D09DF814100098702213F0AAF99DF81500002101AA042315F099
:201F18002FF89DF80400FE2805D09DF815100098FE2213F099F9FE208DF813009DF8150087
:201F38009DF81320062116F0BFF89DF8153000999DF81320980000EBC30009180A769DF826
:201F580015000099087300984FF40051018200999DF8140048739DF814300099009A9800F0
:201F780000EBC3000918888B50820098FF218173009800218182009800F036FD8DF81700D6
:201F98009DF81700102803D10020FEE04FEA0808BDF8080010B1BDF8080000E01020ADF83A
:201FB8000A00BDF8080050B10098BDF80A10008AC0F50050814202DC01208DF81600009856
:201FD800BDF80A10008AC0F50050814208DC9DF8151000987C2213F037F907E04FEA080891
:201FF8009DF815100098782213F02EF9009806F03BF8ADF80E00BDF80C00BDF80E10401A51
:20201800ADF80C000099BDF80E20C87B801AC873FC208DF813009DF815009DF81320062116
:2020380016F042F89DF8153000999DF81320980000EBC30009180A760098BDF80E4043F256
:202058009672C2F20002BDF8101080781378009A0019401890FBF3F15943401A907043F2AD
:202078009671C2F200010098009A0B788078401C90FBF3F15943401A50700020ADF8100089
:2020980000980099827B900000EBC2000918888B102811D1009843F29671C2F20001807BEB
:2020B8000A78401C90FBF2F15143401A8DF8140006E04FEA0808C0460098807B8DF81400D4
:2020D800009880788DF81500BDF8080010B19DF8160020B9BDF80C0000287FF4C5AE7C2051
:2020F80011F01AFB8DF812009DF81200FF2833D17E2011F011FB8DF812009DF81200FF2839
:202118002AD1009800994278900000EBC2000918887DFF280CD1009840788DF812009DF8DE
:20213800121000987E2213F08FF815E04FEA0808009843F2967143F29672C2F20001C2F2EB
:2021580000028078097812784018401E90FBF2F15143401A8DF812009DF812000099C87041
:202178000098009A0099C378980000EBC3000918888BD080009881780098FE2213F064F8CF
:202198000098008AC0F5005000B208B010BD7047C4482DE9FE4F00680C469046B830C16901
:2021B800DFF8FCC291F88320BC499946012A00F09980BC4FCB4804687868C0684FF0E04538
:2021D8000226012215EA090506EA080A02704FF000070F7008BFBAF1000F32D14FF48030DF
:2021F80017EA090600EA080008BF00281AD139464FF4003011EA090600EA080008BF00280E
:202218000CD14FF4800011EA090100EA080008BF00280AD0277111F06BF906E0277113F0C8
:20223800B7FF02E0277154F029FA20203E4600EA080116EA090008BF00293AD017F004F832
:2022580037E0AC4991F90000002803DD91F90000401E0870C64991F90000002803DD91F93D
:202278000000401E0870604602685AB14FF0807607EA080016EA090608BF002816D03846C5
:20229800014690474FF0807607EA080016EA090608BF00280AD0C14991F90000002803DD66
:2022B80091F90000401E087017F00EFA277111F01FF9AF4991F9000058B1002D08BFBAF1BC
:2022D800000F00F0648191F90000002800F35F8150E1744EB24807703068D0F858243946BE
:2022F800084653E16F4A0123202600275268DFF8B4A2D268DFF8B4B2137016EA09060F708B
:2023180007EA080108BF002940F08F80604602684FF0E0463D4616EA090605EA080008BFB7
:2023380000283FD151464FF4860315EA0906DFF880C24888009103EA080108BF002918D193
:20235800994915EA090601EA080108BF002900F084805946CC80B9F1000F088101F120025C
:2023780082E8000308BFB8F1806F76D1022874D10FE05946CC80B9F1000F088101F1200293
:2023980082E8000308BFB8F5803F66D1B0F5505F63D188696646436930683A46214698471F
:2023B800514659E0534991F90000401E08705AB14FF0807605EA080016EA090608BF002804
:2023D8000DD03846394690474FF0807605EA080516EA090608BF002D01D017F075F95D4617
:2023F800B5F90600844217D12A8905F1200003C8002904BFB0F5803FB2F5505F08D0002928
:2024180004BFB0F1806F022A02D011F071F803E013F0BEFE17F058F9554A92F90000401E67
:2024380010706FF00101E98014E000685D466FF00101AA1D1180067866B15E480078832824
:2024580002D05D4981200870296919B1384688472146E8E75146009148883D460221254EE3
:20247800019501EA080115EA090508BF002964D043F201415D4681423ED0C91C81423BD0EB
:20249800B5F9063096F900109C42A1F1010131700AD043F60401814239D136E0CC0B00209C
:2024B800001900001401002005F1200090E806004FF4820338460B4010EA020408BF002B9F
:2024D80015D105F1200191E8000C4FF4003410EA0B0004EA0A0108BF002905D111F008F826
:2024F80015E0C046CC32002013F052FE0FE054F0C5F80CE0D50B0020287896F90040401CB1
:202518002870601E307010F0F3FF16F0BDF82C4B0098478018686FF00104D0F8B800EC809A
:20253800017811B12548017809B917F0CDF810480F4990F90000401E087096F9001009B964
:20255800174807700A4890F90010C9B102224FF0E041104611EA090600EA080208BF002A5F
:2025780015D0184890F90000002810DC02E0C046D40B002012480068D0F84C05804706E0F2
:202598000F480068D0F858243946384690470C484068C0680770BDE8FE8FC046D60B002078
:2025B800CA0B00203032002000000C8C600300205C070020E33800209A380020E038002089
:2025D80014010020D40B002000B5ADF11C0D01910090009816F044FB8DF810009DF81000FA
:2025F80010B19DF81000E6E1019808B90C20E2E10198006820B90F20DDE14FEA0808C04637
:2026180043F25050C2F2000000684FF0FF3117F05BFF4FF0FF300290002003900020059079
:202638000598042835DAC046059843F20841C2F2000151F8300078B9059843F20441C2F25F
:20265800000151F8300038B90298B0F1FF3F1AD10598029017E0C0460598019943F20442B5
:20267800C2F2000252F83000884209D143F25050C2F20000006817F023FF0C209BE1C046A6
:202698000398401C03900598401C059005980428CADB0298B0F1FF3F0AD143F25050C2F2BF
:2026B8000000006817F00CFF0D2084E14FEA08080299009843F20842C2F2000242F83100DA
:2026D8000299019843F20442C2F2000242F831000398002840F34C810398012840F0828059
:2026F80043F2485040F67C11C2F20000C2F20001006809680068086040F67C10C2F20000AA
:2027180000680021017540F67C10C2F2000000680021417540F67C10C2F2000000680021EE
:20273800016140F67C1143F24850C2F20001C2F2000009680068886140F67C1043F24851D4
:20275800C2F20000C2F2000100680968C86043F24850C2F20000016843F24850C2F200008C
:202778000A7A0168900000EBC2000C3801224018027543F24850C2F20000016843F248502A
:20279800C2F200000A7A0168900000EBC2000C3800224018427543F24850C2F200000168E4
:2027B80043F24850C2F200000A7A0168900000EBC2000C3881A24018026143F24850C2F2B3
:2027D8000000016843F24850C2F200000A7A0168900000EBC2000C3846F23922C0F2010241
:2027F80040188261039A40F67C10C2F200000168900000EBC200002209180A75039A40F638
:202818007C10C2F200000168900000EBC200002209184A7540F67C10C2F20000039A01683C
:20283800900000EBC200002209180A6140F67C10C2F20000039B019A0168980000EBC30037
:2028580009188A6140F67C10C2F2000001990068C86001980199027A900000EBC2000C3884
:2028780001224018027501980199027A900000EBC2000C3800224018427501980199027A3E
:20289800900000EBC2000C384CA24018026101980199027A900000EBC2000C3846F2392233
:2028B800C0F201024018826140F67C10C2F20000039A0168900000EBC2000C30022240189F
:2028D800027540F67C10C2F20000039A0168900000EBC2000C3000224018427540F67C1081
:2028F800C2F20000039A0168900000EBC2000C3037A24018026140F67C10C2F20000039AE6
:202918000168900000EBC2000C304AF25132C0F20002401882610398012809D140F67C10AF
:20293800C2F2000000680321017209E04FEA080840F67C10C2F200000168087A401C087263
:2029580040F67C10C2F20000006843F24851C2F20001086040F67C10C2F20000006843F283
:202978004451C2F2000108600EE04FEA0808C046019843F24851C2F200010860019843F2FE
:202998004451C2F20001086043F24850C2F200000068007A40F67411C2F20001401E0860D4
:2029B800002002F0EDFE43F25050C2F20000006817F086FD002007B000BDC0463C20202051
:2029D8002020204241434B2020202020203E00C03C20202020202048454C502020202020EB
:2029F800203E000030BF704730B5ADF14C0D019000208DF8220000208DF8230000208DF81A
:202A18002400002002904FF08850049000208DF8290043F288710020C2F20001087001983B
:202A3800407B8DF8250043F29672C2F2000201999DF825001278C97B4018401E90FBF2F1E0
:202A58005143401A8DF826001620ADF816009DF825008DF828009DF828200199900000EB7B
:202A7800C2000918888BADF818000198007B8DF827009DF827200199900000EBC2000918F7
:202A9800888BADF8140003A811F0F6FC9DF827009DF82810884200F013814FEA0808C0468E
:202AB8009DF8240080B10298002800F009819DF828300199BDF81820980000EBC3000918FD
:202AD8008A83FDE04FEA0808BDF81600BDF8181088422DDB029848B19DF828300199BDF862
:202AF8001820980000EBC30009188A839DF826009DF82810884200F0E3809DF8280043F27B
:202B18009671C2F200010A78401C90FBF2F15143401A8DF8280001999DF82820900000EB08
:202B3800C2000918888BADF8180000200290C0E043F28870C2F200000078002840F0B48093
:202B5800BDF81800C01FADF818009DF82800BDF818100BAA002307F0AFFDBDF83A00ADF84B
:202B78004000BDF84000C01DADF84200BDF81810BDF840001030884203D89DF83600962804
:202B980006D001208DF8220038E04FEA0808C0469DF8370040082BD29DF83700800827D3B9
:202BB800BDF84010BDF81800401AADF81A0000209DF835209DF82830BDF840100090BDF8D1
:202BD8001A0010F035F858B101208DF82200BDF81800401EADF8180010E04FEA0808C0469E
:202BF80000208DF8220000208DF8230006E0C04600208DF8220001208DF823009DF82200FB
:202C180078B19DF8280006A90AF006FF8DF844009DF8440000284CD1039816F0B1F91020A6
:202C3800E5E09DF82300B0BBBDF84210BDF814004018B0F5005F0BDDBDF81800C01DADF831
:202C5800180001208DF8240033E04FEA0808C046BDF81450049ABDF842409DF82800BDF8B8
:202C78001A10BDF84230521B121B02F5005214F077F9BDF84210BDF814004018ADF81400B3
:202C98000298401C0290BDF81400B0F5005F02D101208DF82400BDF84010BDF81800401AFE
:202CB800ADF8180005E0C046039816F069F910209DE09DF827009DF8281088427FF4F0AE40
:202CD80043F28870C2F20000007828B1039816F057F910208BE0C0461020ADF81C00BDF872
:202CF8001400C0F50050ADF81E00BDF814001038ADF82000049ABDF81E409DF82700BDF8E8
:202D18001C10BDF8203012190EF0F2FF43F28872C2F20002117808431070039816F030F94D
:202D38009DF827009DF8281088421DD19DF8280043F2967143F29672C2F20001C2F2000299
:202D5800097812784018401E90FBF2F15143401A8DF8280001999DF82820900000EBC200DD
:202D78000918888BADF81800BDF81C0001990882BDF81800019988829DF828000199887392
:202D98009DF82730BDF814200199980000EBC30009188A830199019A9DF82700497BB2F9D8
:202DB8001220012312F028F80199019A9DF82700897BB2F91420022312F01EF8BDF81600A7
:202DD800BDF81810884205DB9DF8290040F001008DF82900BDF81400B0F5005F05DB9DF875
:202DF800290040F002008DF829009DF8290013B030BD401EFDD1704710B5ADF1800D1C90C5
:202E18001C98C06B1D900021702268460FF00DFC1D9810F8011B1D908DF800101D990A6862
:202E38000DF101000260496841601D9808301D901D981D990078497815F0EAFCADF80A00EF
:202E58001D98801C1D90BDF80A00400815D31D981D990078497815F0DBFCADF80C001D9887
:202E7800801C1D901D981D9A4178107815F0D0FCADF80E001D98801C1D90BDF80A0080087B
:202E98000AD31D981D990078497815F0C1FCADF810001D98801C1D90BDF80A00C00815D3B5
:202EB8001D981D990078497815F0B2FCADF812001D98801C1D901D981D9A4178107815F03C
:202ED800A7FCADF814001D98801C1D90BDF80A000009C0F008811D981D990078497815F0D6
:202EF80097FCADF816001D98801C1D901D981D9A4178107815F08CFCADF818001D98801C26
:202F18001D901D981D9A4178107815F081FCADF81A001D98801C1D901D981D9A4178107853
:202F380015F076FCADF81C001D98801C1D901D981D9A4178107815F06BFCADF81E001D98B2
:202F5800801C1D901D981D9A4178107815F060FCADF820001D98801C1D901D981D9900785C
:202F7800497815F055FCADF822001D98801C1D901D981D9A4178107815F04AFCADF824009C
:202F98001D98801C1D901D981D9A4178107815F03FFCADF826001D98801C1D901D981D9AF9
:202FB8004178107815F034FCADF828001D98801C1D901D981D9A4178107815F029FCADF83C
:202FD8002A001D98801C1D901D981D9A4178107815F01EFCADF82C001D98801C1D901D9861
:202FF8001D9A4178107815F013FCADF82E001D98801C1D901D981D9A4178107815F008FC26
:20301800ADF830001D98801C1D901D981D9A4178107815F0FDFBADF832001D98801C1D9046
:203038001D981D990078497815F0F2FBADF834001D98801C1D901D981D9A4178107815F059
:20305800E7FBADF836001D98801C1D901D981D9A4178107815F0DCFBADF838001D98801CE6
:203078001D901D981D9A4178107815F0D1FBADF83A001D98801C1D901D981D9A4178107883
:2030980015F0C6FBADF83C001D98801C1D901D981D9A4178107815F0BBFBADF83E001D9873
:2030B800801C1D901D981D9A4178107815F0B0FBADF840001D98801C1D901D981D9A41784A
:2030D800107815F0A5FBADF842001D98801C1D901D981D9A4178107815F09AFBADF8440096
:2030F8001D98801C1D90BDF80A00400918D31D981D991D9A1D9B007849789278DB7812F055
:20311800DFFF12901D98001D1D901D981D991D9C1D9AC37849789278207812F0D1FF1390AA
:20313800BDF80A00000A58D31D98001D1D9000208DF878009DF87800062814DA4FEA080875
:203158001D989DF8781010F8012B1D900DEB010080F850209DF87800401C8DF878009DF8C8
:2031780078000628ECDB1D981D990078497815F04FFBADF856001D98801C1D901D981D9A72
:203198004178107815F044FBADF858001D98801C1D901D9810F8011B8DF85A101D90002002
:2031B8008DF878009DF878109DF85A00884214DD1D989DF8781010F8012B1D900DEB010087
:2031D80080F85B209DF87800401C8DF878009DF85A009DF878108842EADC43F2C401C2F234
:2031F80000010868401C08601C9890F920101C986A4606F0B1F91C980FF0DEFE20B010BDE5
:2032180010B5ADF1200D039202918DF8140000208DF8150000208DF816000021022204A8DF
:203238000FF003FA9DF814008DF8100040F6ED20C2F200000078002800F0428143F220702D
:20325800C2F2000016F030FB40F6ED210020C2F20001087034E140F6C6410120C2F20001B8
:20327800088043F22070C2F2000016F01DFB47E143F22070C2F2000015F022FC40F6C64116
:203298000120C2F2000108803AE14FEA0808C04643F22070C2F2000016F006FB30E1C046B7
:2032B80040F6C640C2F20000007801213222012310F0C2FF40F6C641C2F2000108801FE1B9
:2032D80040F6C640C2F20000007801213222012310F0E2FF40F6C641C2F2000108800FE189
:2032F80040F6C64040F6C641C2F20000C2F20001B0F90000B1F900100322401E90FBF2F081
:20331800091A491E8DF818109DF8180000EBD07040108DF8190040F6C640C2F20000B0F9FF
:203338000000002840F3EC8040F6C640C2F20000B0F90000032290FBF2F15143401A02286A
:203358000AD19DF8191043F22072C2F20002885C40F00F00885416E040F6C640C2F200005A
:20337800B0F90000032290FBF2F15143401A012809D19DF8191043F22072C2F20002885CE9
:2033980040F0F000885440F6C640C2F20000007801213222012310F04FFF40F6C641C2F2D8
:2033B80000010880ACE09DF81400302803DB9DF81400392809DD9DF814006128C0F2A0800D
:2033D8009DF81400662800F39B8040F6C64040F6C641C2F20000C2F20001B0F90000B1F95B
:2033F80000100322401E90FBF2F0091A491E8DF818109DF8180000EBD07040108DF81900B8
:2034180040F6C640C2F20000B0F90000032290FBF2F15143401A01281AD19DF8191043F273
:203438002072C2F20002885C00F00F0088549DF8194004A81022002107F016F843F22072B4
:20345800C2F20002A15C41EA0010A05425E0C04640F6C640C2F20000B0F90000032290FB1E
:20347800F2F15143401A022817D19DF8191043F22072C2F20002885C00F0F00088549DF8E1
:20349800194004A81022002106F0EEFF43F22072C2F20002A15C0843A05440F6C640C2F230
:2034B8000000007801213222012310F0F5FE40F6C641C2F20001088022E04FEA0808C04624
:2034D8009DF81400FB280CDCFB2819D000283FF4DFAE0D3814D072383FF402AF7B380FD0E3
:2034F80061E7FC383FF4ECAE401E3FF4D9AE401E3FF4B1AE401E3FF4BBAE54E74FEA0808E5
:2035180000208DF815009DF81500112834DAC04601200090002001909DF8150043F2207110
:20353800C2F20001085C1022022306A90DF03CF902989DF81610006840181AA116F096FBBB
:203558009DF81600401C8DF8160002989DF8161000680222401806A914F075FD9DF81600A8
:20357800801C8DF816009DF81500401C8DF815009DF815001128CBDB9DF8140080B102985F
:20359800806809A116F072FB03980121018040F6C640C2F200000399B0F90000401C488077
:2035B80008B010BD2000C04620202020204348414E204D41534B00002DE9FE4F0090BD4C46
:2035D80001910834BC4EDFF8F8A2206802924030D0F89410DFF8F08291F88320B74999463E
:2035F800012A00F08B806268D268012300251370036835701F680D7017B9D0F80C05804739
:2036180050460768DFF8BCA247B120685146006C029A098800684B460C30B84702984FF09B
:20363800E24717EA090705EA000008BF002848D102992E46082016EA090700EA010008BF48
:20365800002837D0404690F90010A04F491E0170398842F20140884202D0001D88420BD1A8
:203678009B4800680199826C0098904720B1008842F6014181420BD151460888B0F5105F43
:203698001DD1954841699348016014F017F92AE0E1200CF021F998F9000028B198F9000031
:2036B800002800F30181F0E02068D0F8582429462846F4E0404690F90010491E01701D20D4
:2036D8000FE0404690F900102768491E0170386C006840680078800902D214F0FDFF02E0F2
:2036F800E9200CF0F9F898F90000002800F0D28098F90000002800F3D780C6E06268D26814
:20371800012300251370036835701F680D7017B9D0F80C05804750460768DFF8C0B147B1FC
:2037380020685946006C029A098800684B460C30B8476C4A901C029B0188022615EA0907BE
:2037580006EA030008BF00282FD14FF0E2472846194617EA090700EA010108BF002915D167
:2037780020274FF48600194617EA090700EA010008BF002803D11D200CF0AEF86DE001993D
:203798000098029A4B46FEF703FD66E0414691F90020534F521E0A703978862902D014F01E
:2037B8009BFF5AE014F070F857E0404690F90030DFF834A116465B1E037043F20840884200
:2037D80008D052461288831C8B4203D0904218BF934219D13E4800680199826C009890473B
:2037F80080B1008843F6030181420BD0284609F063FD98F9000000284CD098F900000028C8
:2038180052DC42E0524612885846018843F6040088422AD0904228D07288904225D0B1F5B5
:20383800505F05D0080B16D31D200CF055F812E02E4828492A4F006800F5C0700860387873
:20385800862802D014F03AF805E001990098029A4B4611F06BFE15F037FF98F90000C8B1A7
:2038780098F9000000281FDC0FE021480078022817D0032815D0284609F01EFD98F9000078
:2038980040B198F9000000280EDC2068D0F84C05804709E02068D0F85824284601469047D3
:2038B80002E028460CF018F86068C0680570BDE8FE8FC0460C010020CC0B0020CB0B0020DD
:2038D800FC180000DE360020D40B00208634002078030020CC380020DC360020A6340020C4
:2038F800E3380020383600201E36002028010021DC09002016F0ACBC00B5ADF11C0D0191A8
:20391800009000980490049810F056FD43F63800C2F2000000784FF4804114F001FEC0463A
:2039380043F63800C2F2000000780DF0BDFA40F62C31C2F20001086016F0BEFD43F638003C
:2039580040F62C31C2F20000C2F20001007809680AF0AEFC11F01CF940F62C30C2F200006A
:203978000068800949D33CE008F0B0FA039040F20C10C2F200008068C16B087B401E08735F
:20399800039853F06DF9029800788DF8140040F20C10C2F2000081680298D1F89810486082
:2039B800029840788DF816009DF8160020B9029816F07EFD07E0C0469DF81400162802D1BC
:2039D80002A816F071FD9DF81400162809D040F20C10C2F200008068D0F89800001D16F084
:2039F80063FD40F20C10C2F200008068C06B001D12F0DEFA00280290B6D140F62C30C2F2BC
:203A180000000068000C33D343F63800C2F2000000780BF081F9029050B34FEA0808C0461E
:203A380002980078D02803DB02980CF025FE15E040F20C10C2F2000081680298D1F89810E2
:203A58004860029816F034FD40F20C10C2F200008068D0F89800001D16F026FD43F63800D4
:203A7800C2F2000000780BF057F900280290D7D140F62C30C2F200000068400905D32E2038
:203A98008DF8140005A816F013FD40F62C30C2F200000068400805D325208DF8140005A859
:203AB80016F006FD40F62C30C2F200000068800805D326208DF8140005A816F0F9FC40F61A
:203AD8002C30C2F200000068C00805D327208DF8140005A816F0ECFC40F62C30C2F20000F5
:203AF8000068000905D329208DF8140005A816F0DFFC40F62C30C2F200000068C00908D3A3
:203B180000208DF815002D208DF8140005A816F0CFFC40F62C30C2F200000068000A08D3DC
:203B380000208DF8150030208DF8140005A816F0BFFC40F62C30C2F200000068400A08D389
:203B580000208DF8150035208DF8140005A816F0AFFC40F62C30C2F200000068C00A08D3F4
:203B780000208DF8150023208DF8140005A816F09FFC40F62C30C2F200000068800A08D336
:203B980000208DF8150036208DF8140005A816F08FFC40F62C30C2F200000068C00B01D3D9
:203BB80011F0D6F940F20C10C2F200008068D0F89800006868B308F089F9069040F20C10F2
:203BD800C2F200008068D0F898000068029040F20C10C2F200008068D0F89800002101600B
:203BF800069853F03DF840F20C10C2F2000081680298D1F898104860029816F059FC40F2D2
:203C18000C10C2F200008068D0F89800001D16F04BFC40F62C310020C2F20001086016F034
:203C38003FFC7DE62DE9F04FB04C20692289A389216A806DADF11C0D1546C91808310CF06D
:203C58001DFAA089DFF88C822169401982B2886D08F10807401988653868216AD0F8D40006
:203C7800A2818A18083290F8836012780DF116000270A089022E00F1010080B2A08108D13B
:203C9800954A0818083000781070A089401C80B2A08109180831096868460160A189091DDB
:203CB800A18104210BF06CFE2569009015F078FAE8632569009815F0A3F8A5F84000EA20B3
:203CD80013F012FD8A484FF0020B022E80F800B008D178684069007820B115F059FC08B186
:203CF8000420E0702569E078297C084328749DF9160000210EF055FA85F8460005F1740679
:203D1800AE6529899DF916006B6885F84800B5F85C000026401AC0186860A88985F8476004
:203D3800800A0CD33868D0F80813284688472569686E20B1B5F86800002800F0BE8095F815
:203D5800600060B13868D0F80C13284688472569E86C20B1B5F85000002800F0AE80386880
:203D7800D0F8B8000078002800F08A80A889DFF86CA100F00701022967D16378002B64D166
:203D98006B78002B61D12169B1460DF10E008DF81790283115F004FD216928314D6801A872
:203DB80045600E8906810A68026055463B682888401C2880D3F8B8002269436A506E0421C4
:203DD8000DF11702984704F1100638B93868006C03681BB19DF8170083F86800216991F8F4
:203DF8003000022812D139683068D1F8D4105A462830203114F0E6FD38B93868D0F8D4101B
:203E18000DF10E00163115F0CBFC216934480078862808D16888401C68808989207901F096
:203E3800100111F079FD3968B8310A68107838B1976C2FB120693946884740468168B83163
:203E5800D1F89C1130464E4632E026490B78BBB1C0F30130022813D16878002834D179687A
:203E78009DF816008968554608702269A888401CA880E07802F128011C3211F0DBFC256914
:203E9800194802681AB128460121904725693968B8310A68107840B1976C37B13946284632
:203EB8008847404625698168B831D1F8A01128468847266115F01CFA08E03868D0F8541226
:203ED80004F11000884726610FF012FB07B0BDE8F08FC0460C010020250A0020EC090020F1
:203EF800E3380020E038002000190000B83200209A38002016F0A8B900B5ADF1240DADF892
:203F18000C308DF81020019100909DF810000021042302AA13F024F89DF808007E2805D1A5
:203F38009DF8101000987C2211F08EF99DF808007C2809D043F288710120C2F20001087060
:203F58002CE14FEA0808C0460198C089C01DADF80E00BDF80C00BDF80E104018B0F5005F8B
:203F780000F3168101980199C088097A001261F39F008DF818000198C08800F0FF008DF8AA
:203F9800190001988088C0F387008DF81A00019801998088C98900F00300C1F3851141EA81
:203FB80080118DF81B100198C08900F03F0080008DF81C000198C089ADF81600BDF80C0018
:203FD800BDF816104018ADF81400BDF80E000C286EDCBDF816200A9943F2E670C2F20000CF
:203FF8000CF04CF806A9BDF816000A6843F2E673C2F20003C018026009790171BDF816003F
:204018000022401D81B243F2E670C2F2000014F0ABF98DF820009DF81C109DF82000C0F321
:20403800811008438DF81C009DF8200000F03F00800040F002008DF81D0096208DF81E005A
:20405800BDF8160006A90A6843F2E673C2F20003C01802608A88828089798171BDF80E30E2
:20407800BDF80C109DF8100043F2E672C2F200020DF03EFE43F28871C2F200010870BDF826
:204098000E10BDF80C004018ADF80C000099BDF80E20C8888018C8809DF810300099BDF851
:2040B8000C20980000EBC30009188A8360E0C046BDF816100A98002214F056F98DF820006B
:2040D8009DF82020052106A814F04EF98DF820009DF81C109DF82000C0F3811008438DF8A5
:2040F8001C009DF8200000F03F00800040F002008DF81D0096208DF81E00BDF816309DF86B
:2041180010000A9ABDF80C100DF0F2FD43F28871C2F200010870BDF814109DF8100006AA8D
:2041380007230DF0E5FD43F28872C2F2000211780843107043F28870C2F20000007868BBA9
:20415800BDF80E10BDF80C004018ADF80C000099BDF80E20C8888018C8809DF81030009990
:20417800BDF80C20980000EBC30009188A83FFE743F28870C2F20000007878B19DF81010B5
:20419800BDF8142000980CF0A7FB07E04FEA080843F288710520C2F20001087009B000BDC2
:2041B80000B5ADF11C0D039202918DF814000021022204A80EF039FA9DF814008DF810004A
:2041D80040F6EC20C2F200000078002800F0C48043F26C00C2F2000010F08AFD40F6EC21DE
:2041F8000020C2F200010870B6E043F26C00C2F2000010F07DFDCFE043F26C00C2F20000F1
:20421800008814F0B9FA40F6D2410620C2F200010880C1E04FEA080843F26C00C2F200005C
:2042380010F066FDB8E0C04640F6D240C2F2000000780621092200230FF0FEFF40F6D24137
:20425800C2F200010880A7E040F6D240C2F20000007806210922002310F01EF840F6D2413A
:20427800C2F20001088097E040F6D240C2F20000B0F90000C0F1090080008DF8180040F6C0
:20429800D240C2F20000B0F900000628C0F284809DF8183043F26C01C2F200010A880F20BE
:2042B80098401043088040F6D240C2F2000000780621092200230FF0BFFF40F6D241C2F290
:2042D8000001088068E09DF81400302803DB9DF81400392807DD9DF8140061285CDB9DF82A
:2042F8001400662858DC40F6D240C2F20000B0F90000C0F1090080008DF818000021102201
:2043180004A806F0B1F88DF8190043F26C02C2F200029DF8183011880F2098408143118071
:2043380043F26C01C2F200019DF818309DF819000A8898401043088040F6D240C2F2000042
:2043580000780621092200230FF0A6FF40F6D241C2F2000108801FE09DF81400FB280CDC7B
:20437800FB2819D000283FF457AF0D3814D072383FF47AAF7B380FD0A5E7FC383FF464AFF1
:20439800401E3FF451AF401E3FF42FAF401E3FF433AF98E74FEA080843F26C00C2F2000075
:2043B80000884FF6FF71814206D1029800681AA115F05CFC19E0C04601200021009043F2EE
:2043D8006C000191C2F2000000881022042306A90CF0EAF90298006814A115F047FC02980B
:2043F800006806A9042213F02EFE9DF8140080B1029880680FA115F039FC039801210180B5
:2044180040F6D240C2F200000399B0F90000401C488007B000BDC0462020202030784646F1
:2044380046462028616E792900C046C020202020307800C0202020202050414E2049440045
:2044580000B5ADF10C0D40F66010C2F20000007810B9012029E1C04640F6741143F2445088
:20447800C2F20001C2F200000A680168900000EBC20009181031009143F66400C2F200005F
:2044980000788DF8040000208DF805009DF804001B2849D143F6640085A10422C2F20000C6
:2044B80014F090FA20B9FA208DF804003CE0C04643F664007FA10422C2F2000014F082FAA1
:2044D80030B9FB208DF804002EE04FEA0808C04643F6640078A10422C2F2000014F072FADA
:2044F80030B9FC208DF804001EE04FEA0808C04643F6640071A10422C2F2000014F062FAE0
:2045180030B9FD208DF804000EE04FEA0808C04643F664006AA10522C2F2000014F052FAE4
:2045380010B101208DF805009DF80500002840F0A7809DF80400412808DB9DF804005A28DE
:2045580004DC9DF8040020308DF80400009840798DF8080000208DF809000098007902282A
:204578000AD19DF80410009804F0F2FA8DF8090016E04FEA0808C0460098007903280FD138
:204598009DF80410009804F01FFA8DF8090000989DF808104079884202D01B208DF80400C9
:2045B8009DF8090000286BD15AE09DF804000BF087FB65E04FEA080809F0C6F960E0C04605
:2045D80043F24450C2F200000068C068C0B143F24450C2F200000068C06843F24451C2F2BA
:2045F8000001086040F67810C2F20000006840F67411C2F2000108600EE04FEA0808C0464B
:2046180043F24450C2F200000068007A40F67411C2F20001401E0860002001F0B1F82FE024
:204638009DF8080010B100984079A8B143F24850C2F20000006843F24451C2F2000108608A
:2046580043F24850C2F200000068007A40F67411C2F20001401E0860002001F091F80FE020
:204678009DF804000D38A7D00E38D9D06438A7D07B3805D0401E03D0401E96D0401E94D08C
:2046980043F6640000210522C2F200000DF0CDFF40F66410C2F20000006843F65C0105221D
:2046B800C2F2000115F074FD002003B000BDC0461B5B41001B5B42001B5B43001B5B44003F
:2046D8001B0000000000704700B5ADF1140D009040F66010C2F200000078002840F032810F
:2046F80000980078002800F02D8143F25030C2F2000015F075F943F268310120C2F200014C
:20471800087043F2503243F274500121C2F20002C2F2000015F0C0FE43F27450C2F200005D
:2047380015F0EAFC43F23C51C2F20001086000200190019802280DDA019843F64402002103
:20475800C2F2000242F820100198401C019001980228F1DB43F2C85043F250320121C2F232
:204778000000C2F2000215F097FE43F2C850C2F2000015F0C1FC43F24051C2F2000108602B
:2047980043F2503243F290500121C2F20002C2F2000015F081FE43F29050C2F2000015F057
:2047B800ABFC43F25051C2F20001086011F066FC43F27430C2F2000014F03EFF43F28C3124
:2047D8004FF4E130C2F20001086043F275310120C2F20001087043F28A310020C2F2000162
:2047F80008704CF2C11043F28431C0F20000C2F20001086043F274310120C2F20001087039
:2048180043F289310020C2F20001087043F2A17043F28031C0F20100C2F20001086043F213
:2048380074310020C2F2000111F018FF40F66411C2F20001086040F66410C2F20000006840
:2048580010B901207FE0C04640F66410C2F20000006843F65C010522C2F2000115F098FC20
:2048780040F66410C2F2000000682021002215F08AFC41F6103101A80F22C0F200010BF06C
:20489800FDFB01A815F004FE014601A800F060F850B140F66410C2F20000006815F06EFCEA
:2048B800012050E04FEA080843F2044000212022C2F200000DF0B9FE40F67C10C2F200008C
:2048D8000068002104220DF0B0FE40F67C10C2F2000000680021016040F67C10C2F2000090
:2048F800006840F6EF21C2F20001416040F67C10C2F2000000680521017240F67C10C2F2AF
:20491800000000680021C16043F2503243F2AC500121C2F20002C2F2000015F0BDFD43F26D
:20493800AC50C2F2000015F0E7FB43F25451C2F20001086040F660110120C2F200010870DC
:20495800002000E0012005B000BD6FF00100704700B5ADF10C0D0191009040F66410C2F2A9
:204978000000006808B1009810B90B202AE1C04643F24050C2F2000000684FF0FF3115F00C
:20499800A3FD40F66410C2F20000006815F00FFC40F67010C2F2000001990068C0F50070F8
:2049B80081426ED900208DF808009DF808000A2863DA4FEA0808C04640F66C1040F6701164
:2049D800C2F20000C2F2000100680968C0F50070814219D940F66C1040F66C11C2F200008A
:2049F800C2F200010268096840F66410C2F20000006842F20823C2F20003C2F50072C91829
:204A180015F0D0FB16E0C04640F66C10C2F20000016840F67012C2F2000240F66410C2F217
:204A380000001268006842F20823C2F20003C91815F0B8FB642015F027FD40F66410C2F2C2
:204A58000000006815F0B3FB40F67010C2F2000001990068C0F50070814205D800208DF84D
:204A780008000AE04FEA08089DF80800401C8DF808009DF808000A289EDB9DF8080000B1C7
:204A9800FEE7019A40F67011C2F20001086880180860019940F66810C2F200000068C0F589
:204AB800007081422CD940F6681040F66811C2F20000C2F2000102680868009942F208230E
:204AD800C2F20003C2F50072C0180BF0D7FA40F6681140F66810C2F20001C2F20000019AD9
:204AF8000B6800680099C0F50070D2180918A2F5007242F20820C2F200000BF0BFFA0DE040
:204B180040F66810C2F200000099019A006842F20823C2F20003C0180BF0B0FA019940F61C
:204B38006810C2F200000068401840F668116FF35F20C2F20001086040F66C1040F670115B
:204B5800C2F20000C2F2000100680968C0F50070814219D940F66C1040F66C11C2F2000008
:204B7800C2F200010268096840F66410C2F20000006842F20823C2F20003C2F50072C918A7
:204B980015F010FB16E0C04640F66C10C2F20000016840F67012C2F2000240F66410C2F256
:204BB80000001268006842F20823C2F20003C91815F0F8FA43F24050C2F20000006815F027
:204BD8007FFC002003B000BD10B5ADF1280D8DF8241007909DF824200799900000EBC20014
:204BF8000918888BADF820000420ADF82200BDF8200041F6F071001F814227D2BDF820009C
:204C1800ADF82200BDF8220041F6F071001F81421CD24FEA0808C0460020009000209DF8C2
:204C380024100190BDF82220079802AB00F008F9BDF81610BDF81400401AADF82200BDF8E9
:204C5800220041F6F071001F8142E5D30798007802280ADCBDF82200042806D0BDF8220011
:204C7800ADF820000420ADF822009DF824008DF82500BDF82200001F56D09DF8250043F2FE
:204C98009671C2F200010A78401C90FBF2F15143401A8DF82500BDF822009DF82510102388
:204CB800001F82B29DF82400009204220AF058FA9DF825100798782210F0C6FA9DF825202F
:204CD8000799900000EBC200002209184A769DF82530BDF82200079A99000C3001EBC301F5
:204CF800521890839DF825000799C8709DF825300799079A980000EBC3000918888BD08098
:204D18009DF82500022113F00FFF8DF826009DF8260020F003008DF826009DF825009DF81A
:204D38002620022113F0C0F9BDF82210BDF82000401A00285CDD9DF8250043F29671C2F215
:204D580000010A78401C90FBF2F15143401A8DF82500BDF82210BDF82000BDF82220401A49
:204D780083B29DF824009DF82510009310230AF0F7F99DF825100798782210F065FA9DF8BC
:204D980025200799900000EBC200002209184A76BDF822409DF82530BDF82000079A9900C6
:204DB800001B01EBC3011030521890839DF825000799C8709DF825300799079A980000EB13
:204DD800C3000918888BD0809DF82500022113F0ABFE8DF826009DF8260020F003008DF8ED
:204DF80026009DF825009DF82620022113F05CF99DF82410079805F00BFE43F28872C2F21C
:204E180000021178084310709DF824000799887043F29671C2F200019DF82400079A0B7805
:204E3800401C90FBF3F15943401A50709DF824100798FE2210F008FA0AB010BD13F01DBBED
:204E580090B503AFADF13C0D0293ADF810208DF81610019000208DF817000020ADF8120023
:204E78000020ADF81400029A02980299127AC088898802F03F026FF39F206FF39F2140EAEB
:204E9800023041EA003103919DF816008DF8180043F29670C2F20000BDF814100078884286
:204EB80040F300814FEA0808BDF81400401CADF8140001989DF818108078884200F0CA80AD
:204ED800BDF810001728C0F0C5804FEA0808C046BDF81000C01FADF810009DF81800BDF8B7
:204EF800101007AA002305F0E7FB9DF8270080087BD39DF82700400877D20298007A0C9040
:204F18000298C0880D9027E001208DF817002FE00798039988422BD101208DF8170027E062
:204F38009DF824000C99884222D101208DF817001EE04FEA0808C0469DF824000C9988420C
:204F580016D1BDF822000D99884211D101208DF817000DE00420A9E097F9000010F00F0033
:204F7800D2D0401EDCD0401EE6D0401ED0D0F1E79DF81700002838D0786800282CD097F913
:204F9800000000F0F000102826D100200090796878688A898368002107A808F039FFB8B90A
:204FB8007B68786879687A68DB88806809689288C01813F007FD58B9029807A91CC91CC082
:204FD80006C980E80600002070E04FEA0808C04600208DF8170008E0029807A91CC91CC00E
:204FF80006C980E80600002060E09DF82700C0081ED3BDF81000BDF82A10884208DDBDF86F
:205018002A10BDF81000401AADF8100018E0C0469DF81810BDF8102001980BF05DFC019844
:205038000021FCF78DFE022040E04FEA0808C04601980021FCF784FE022037E04FEA080877
:20505800BDF81200401CADF81200BDF810001728BFF43EAF9DF8180043F2967143F2967294
:20507800C2F20001C2F20002097812784018401E90FBF2F15143401A8DF8180001999DF8C4
:205098001820900000EBC2000918888BADF81000BDF8141043F29670C2F200000078884290
:2050B8003FF702AF0298002181810A200FB090BD00B5ADF1440D002000900098322880F246
:2050D800E78001E04FEA0808009A41F6B0719000C2F2000100EBC200085A4FF6FF71814269
:2050F80000F0CF80009A41F6BA719000C2F2000100EBC200085A4008C0F0C380009A41F6FD
:20511800BA719000C2F2000100EBC200085AADF80400BDF80400C00B0ED3009941F6B072F8
:205138008800C2F2000200EBC10080180FF0E4F8E7E04FEA0808C046BDF8040010F4304FA8
:2051580000F09F8000200290BDF8040010F4104F4CD00AA800210C220DF067FA02208DF838
:205178003C00009A41F6B071C2F20001900000EBC200085AADF8340004A90DA808F080FDE5
:2051980028B105A90A680BA8026049684160009A41F6B0719000C2F2000100EBC200085A51
:2051B800ADF82A0040F61C40C2F200000088ADF82800BDF804000021400B01D3012000E073
:2051D800002000B101210AA810F066FE009A41F6B071C2F20001900000EBC20040184289A7
:2051F8004FF6FE41CFF6FF7111404181009A41F6B0719000C2F2000100EBC20040184189C5
:2052180021F430414181009803900298002831D1039A41F6B0719000C2F2000100EBC20058
:20523800085A4FF6FF71814214D0039A41F6BA719000C2F2000100EBC200085A400809D321
:20525800039A41F6B0719000C2F2000100EBC200401802900398312802D10020039002E009
:205278000398401C039000980399884202D002980028CDD00298002843D002980FF03CF8BB
:205298003FE00098401C009000983228FFF61CAF00200090009832282CDA4FEA0808C046AA
:2052B800009A41F6B0719000C2F2000100EBC200085A4FF6FF71814216D0009A41F6BA7136
:2052D8009000C2F2000100EBC200085A40080BD3009941F6B0728800C2F2000200EBC10060
:2052F80080180FF009F805E00098401C009000983228D5DB0098322803D141F2883011F041
:205318001FF811B000BD704700B5ADF1240D039202918DF818000021022204A80DF085F974
:205338009DF818008DF8100040F6EE20C2F200000078002800F0AC8043F25C010120C2F2F8
:205358000001088040F6EE210020C2F2000108709EE040F6CA410620C2F200010880B3E065
:2053780040F6CA40C2F2000000780621092200230EF062FF40F6CA41C2F200010880A3E0D4
:2053980040F6CA40C2F2000000780621092200230EF082FF40F6CA41C2F20001088093E0A4
:2053B80040F6CA40C2F20000B0F90000C0F1090080008DF81C0040F6CA40C2F20000B0F9C0
:2053D80000000628C0F280809DF81C3043F25C02C2F2000211880F2098408143118040F680
:2053F800CA40C2F2000000780621092200230EF023FF40F6CA41C2F20001088064E09DF873
:205418001800302803DB9DF81800392807DD9DF81800612858DB9DF81800662854DC40F62A
:20543800CA40C2F20000B0F90000C0F1090080008DF81C000021102204A805F015F88DF88C
:205458001D0043F25C02C2F200029DF81C3011880F2098408143118043F25C01C2F20001B1
:205478009DF81C309DF81D000A8898401043088040F6CA40C2F2000000780621092200235B
:205498000EF00AFF40F6CA41C2F2000108801BE09DF81800FB280ADCFB2815D0A0B10D3820
:2054B80012D072383FF47CAF7B380DD0A7E7FC383FF466AF401E3FF453AF401E04D0401E2D
:2054D8003FF447AF9BE7C04643F25C00C2F20000008828B943F25C010120C2F20001088065
:2054F80001200021009043F25C000191C2F2000000881022042305A90BF056F90298006810
:205518000FA114F0B3FB0298006805A9042212F09AFD9DF8180080B1029880680AA114F093
:20553800A5FB03980121018040F6CA40C2F200000399B0F90000401C488009B000BDC0469C
:2055580020202020307800C0202053454C45435445442053454E534F520007200CF050BC99
:2055780000B5ADF10C0D019200918DF80800B3E043F260010020C2F20001086040F6CE414B
:205598000420C2F200010880C2E04FEA0808C04640F6E821C2F20001088840F00400088061
:2055B800012043F26401C2F20001087040F6FC30C2F2000010F0A6F840B967A10A6840F68E
:2055D800FC30C2F2000002604968416040F6FC30C2F2000010F096F843F26001C2F2000130
:2055F800086043F22C00C2F20000006814F068FF8EE040F6CE40C2F20000007804210B2213
:2056180000230EF019FE40F6CE41C2F2000108807EE04FEA0808C04640F6CE40C2F2000013
:20563800007804210B2200230EF036FE40F6CE41C2F2000108806BE040F6CE40C2F200006E
:20565800B0F90000042863DB40F6CE40C2F20000B0F9000040F6FC323021C2F20002001FF4
:20567800115440F6CE40C2F200000078002304210B220EF0E1FD40F6CE41C2F2000108806A
:2056980046E04FEA0808C0469DF8080030283FDB9DF8080039283BDC40F6CE40C2F2000061
:2056B8009DF80810B0F9000040F6FC32C2F20002001F115440F6CE40C2F20000007800234B
:2056D8000B2204210EF0E8FD40F6CE41C2F2000108801DE04FEA08089DF80800FB2809DC10
:2056F800FB2815D0A0B10D3812D07238A4D07B380ED0C9E7FC388FD0401E3FF47AAF401E08
:205718003FF436AF401E3FF443AFBDE74FEA08080098006813A114F0A9FA0098006840F658
:20573800FC310822C2F2000112F08DFC9DF8080080B1009880680DA114F098FA019801216D
:20575800018040F6CE40C2F200000199B0F90000401C488003B000BD303030393030303058
:2057780000C046C02020202000C046C020205245504F525420494E54455256414C007047AD
:2057980000B5ADF1240D8DF8140042F22860C2F20000019042F2AA60C2F20000029042F21B
:2057B8002C70C2F2000003909DF81400002840F0918040F6741143F24450C2F20001C2F2EF
:2057D80000000A680168900000EBC20009181031079142F20860002140F2A512C2F2000045
:2057F8000CF023FF43F2485043F24451C2F20000C2F200010068096888420DD143F2445029
:20581800C2F20000016801984968802211F043FE2FE04FEA0808C04643F2445040F6741143
:20583800C2F20000C2F2000100680968007A401E88421ED043F24450C2F200000068089001
:2058580005E04FEA0808C0460898C06808900898C06840B1089940F67C10C2F20000C9689B
:2058780000688842F0D1089901984968802211F012FE0798007902280AD10798806838B1F2
:205898000798836801A906AA0020984711E0C0460798007903280CD107988068006840B116
:2058B80007990798896880680B68C088002201A998470798007938B9079881680398496875
:2058D800802211F0E8FD05E0079903980968802211F0E1FD01200090202128A2802342F283
:2058F8000860C2F2000013F00FFE019942F208608022C2F2000012F0A6FB42F2086025A1D3
:205918000322C2F2000012F09EFB029942F208608022C2F2000012F096FB42F208601DA181
:205938000322C2F2000012F08EFB039942F208608022C2F2000012F086FB41F27110C0F274
:2059580000000088ADF8100004A814F0A1FD024604A942F20860C2F2000012F074FB42F2BA
:205978000860C2F2000014F093FD014642F20860C2F20000FEF7ECFF09B000BD1B5B3F328B
:20599800356C1B5B333B2564481B5B314A1B5B48256300C00A0D00C000B5ADF12C0D0591A9
:2059B8008DF8240041F64841C0F200010A6807A80260097901710598002837D00598007B58
:2059D80043F2E471C2F2000108700598008843F2D871C2F2000108800598408843F2DA7133
:2059F800C2F2000108800598407B43F2E571C2F2000108709DF8240043F26501C2F2000139
:205A1800087043F26500C2F20000007840B943F268013FA0C2F20001086007E04FEA08086D
:205A380043F268013CA0C2F20001086040F6EB20C2F20000007818B93AA0069002E0C04621
:205A580039A006900CF0A4FA43F6D0010346C2F2000143F6BC00C2F200000968006833A2C6
:205A780000F0B6FB43F2E570C2F20000007858BB07A843F2DA710090C2F20001088843F26B
:205A9800D8710190C2F20001088843F2E471C2F20001029008780390069943F26802C2F2F9
:205AB800000243F6BC00C2F20000049143F6B801C2F200011368006809681DA200F088FB61
:205AD80024E04FEA0808C04607A843F2DA710090C2F20001088843F2D8710190C2F2000193
:205AF80008880290069943F26802C2F2000243F6BC00C2F20000039143F6B801C2F2000194
:205B18001368006809681AA200F062FB0BB000BD5374617274656400526573746172746577
:205B38006400C0464F6666004F6E00C0257800C025732D2D4D6F64653D25732C204164644D
:205B5800723D3078253034782C2050616E49643D3078253034782C2043683D25642C20507E
:205B780065726D69744A6F696E3D25732000C04625732D2D4D6F64653D25732C20416464C0
:205B9800723D3078253034782C2050616E49643D3078253034782C2043683D46482C205039
:205BB80065726D69744A6F696E3D2573200070472DE9FE4F9B4615468946824606F086F9C5
:205BD8007D490190FC3908680CAF504508BF48687A4C6FF0010828B1803014F0CDF8002842
:205BF80040F0D68012F04CFE061C00F0DB8004F1D40001F0BBFB0023B4F9A800C6F80C900C
:205C1800401C86F832306FF31F30A4F8A800C6F808B0B4F8A80030866548C6F810A097E821
:205C38000C0020210027B8461940104006F1180383E80300424686F8332006F1200383E8D3
:205C58008001E8683064287C86F8440028687063287986F83800A868F0636869B064A8694E
:205C7800F064287F86F85000687F86F851002F7C27B9EF6817B1012086F844002F795FB940
:205C980099F80C0000F00F00022805D1012086F83800D9F808007063484608274568002D36
:205CB80018BF002F70D100886FF30900B0F5305F18BF022506D196F83300082540F010005B
:205CD80086F8330006F1180090E80C00414606F1180745EA0200194387E80300D4F81C01E3
:205CF800824507D194F82001410824BF00F0FE0084F820012F480768002F39D004F19400E2
:205D18000090D4F89C10D4F8A02004F18C052B463046B84710F1030F10D0B6F93010B4F9DC
:205D3800A820914207D0B4F9A81001F6FF716FF31F31A4F8A81010F1020F1BD010F1030FF7
:205D580018D096F83300B6F9308040F0800086F8330000278AF8A8702868864205D0F0687C
:205D7800007B00F00F0002281CD10DF0B7FF19E06FF00200B4F9A810804601F6FF716FF379
:205D98001F31A4F8A81005E07F1E2846FFB285E76FF0020894F8200140F0040084F8200153
:205DB800C4F81CA1019850F05BFF4046BDE8FE8FFFEFFF9F101C0000F01C0020F81A002051
:205DD8002DE9F04F814E3068416EADF12C0D02A88847754C754DA178E06902290DD160B1F1
:205DF80000200FF0DBF930684168E0698847E9688969012008700020E0616D494FF0010A02
:205E18004FF00008083584F802A00F68CDF814801FB1384680470890E06900282ED10FF0DC
:205E380041F8D8B10FF03EF8012817D00FF03AF8052813D00FF036F80C280FD00FF032F899
:205E58000D280BD00FF02EF80B2807D00FF02AF80E2803D02868D0F84C058047306800F1C8
:205E7800200128B92868D0F84C05804731682031096804F1200088474E48E06312F05AFD27
:205E98002968D1F8D40090F85300D1F83C14884707462868D0F8D40090F942000FF0A4FC16
:205EB800454BB0F1FF3F04D0010828BF4FF6FF70188039897A68491E4A43396818464FF471
:205ED8007A791A3801EB5201C0F8048042464280B1FBF9F10184417B6AF303014173017B38
:205EF80083466AF3C71101732868D0F8C4038047F8B9B88931496F68B9FBF0F0C0B2087071
:205F1800796899FBF0F008702868D0F8D40090F85300022806D011F0CDFB032809D10521A1
:205F38005C2001E00221A820254A1170696809680870E36937682169DFF888901BB340469F
:205F58000FF02CF92A686178E069D2F8D420376892F85320914209D07968884768688069E2
:205F780080F800A03068216906680DE0022142468DE806003E6D4346594602AAB04712487E
:205F9800C0F800B006E03E6804F1200348465A46B047E0612868D0F8D40090F853000BB0B5
:205FB8006070BDE8F08FC046400700200C0100200419000054F100801A3200208C09002038
:205FD800050C0020202C00206C030020780300202DE9F047DFF8B4910E46D9F808101F46D7
:205FF80015460446ADF1300DBEB1B5B130784FF0010808FA00F001420FD01046002106F0C3
:20601800B1FAA560666005F061FF614D82462878022804DB504650F023FE0020B2E00028AD
:206038006CD102F0EBF85B495B4E086840F00200086008A8C9F8006013F0F6FE574E5849D1
:20605800707808AA0A9005F5927010F0FDFD554905F5AC7008AA10F0F7FD08A813F0BCFE37
:20607800192108AB3078504A099005F1540010F0B7FC4E4A05F170001A2108AB10F0B0FCAB
:206098004B49002205F1AC00134610F0E6F94949002205F1D400134610F0DFF946480068B3
:2060B800C0F3814030B1454A05F128000421002312F04AFAB078012802D10E2007F0D0FF20
:2060D80005F1940013F0F6FC05F18C0013F0F2FC002185F8241029762962072085F8F00125
:2060F80085F82510364B1970A9600526E960354A2E610420EA6112F0D5FB287805EB8001EF
:20611800401CC1F8FC40C0B22870504650F0A8FD1FB9684613F00CFD6F4638684FF4FA76F7
:20613800E6602060B86941466062388A6175E082F869E062786800280CBF40F6C41000217C
:2061580020612148E06120622175A061F86800B1E061786900B12062B86800B1A061802209
:2061780004F1300000210CF060FA04F14800002111F0DCFF1549002204F18000134610F0E3
:206198006CF920460CB0BDE8F087C046CC210840F81A002000200940110000E0981B0000CA
:2061B8002196010051D50000994901000D2E0100598D010049910100B44F0050055401005B
:2061D8006E300020D1C00000A7210000735500000CB480B502AFADF1F00D029101900198CA
:2061F80012F03EFD8DF8E8009DF8E80020B19DF8E800C5E04FEA0808019810F051FC0490AA
:2062180043F65401C2F200010498029A51F8201034205043019A4058904201D00620AFE000
:206238000498029943F65402C2F2000252F82000342202FB0100C06A4BF6EF61CDF6AD6180
:20625800814201D004209BE0052005900498029943F65402C2F2000252F82000342202FB00
:206278000101059849684018059002200090059B46A2202108A813F047F9C2200690069845
:206298000790049843F65402C2F20002029952F82000342202FB0101069A083108A811F08A
:2062B800D2FE079A06A808A910F0DEFD8DF8E8009DF8E80020B19DF8E80061E04FEA080859
:2062D80027F00300001D039008A814F0E1F806993A68039B6844203014F0D2F8079A06A857
:2062F80008A910F0C1FD8DF8E8009DF8E80018B19DF8E80044E0C0460498029943F65402F7
:20631800C2F2000252F82000342202FB010090F83000F8B108A814F0BBF840F68411C2F2AA
:206338000001097840F6E042C2F20002535C0699684420301BA213F0E7F840F68410C2F24E
:206358000000007840F68411C2F20001401C00F00300087041F27310C0F2000000788DF801
:20637800E40039A9012208A811F06DFE08A814F08FF8014608A8FEF7EBFA0EF0F1F90020EC
:206398003CB0BDE8804002B07047C0461B5B3F32356C1B5B481B5B25643B30481B5B324B3A
:2063B800256300C02025630000B5ADF1240D01928DF81C10009002A80690069A9DF81C00EC
:2063D8000423002110F0CCFD0699069889788078C1F3850100F0030040EA81008DF81D00E4
:2063F8000698C07896281BD19DF81D00022817D10698019900780870069801994078487071
:2064180001980021C1700198FF2181709DF81C004FF4005108F0DCFC0199C8800020ACE02C
:206438009DF81C00002103AA11F0B6FF9DF81C00012104AA11F0B0FF9DF81C00022105AA5B
:2064580011F0AAFF069801780020FF2914D006990978FE2910D0069909787E290CD00699CE
:2064780009787C2908D006990978782904D006990978702900D001208DF81E009DF81E0071
:2064980048B906988078C0F38500032803D10698C07896282CD09DF81C10009804F0B8FA87
:2064B80043F28871C2F20001087043F28870C2F200000078C8B99DF81C00069A00210423F6
:2064D80010F04EFD9DF81C00002103AA11F064FF9DF81C00012104AA11F05EFF9DF81C00E6
:2064F800022105AA11F058FF02E0012045E0C046069801990078087006980199407848705C
:2065180006980199807800F00300C8709DF80E000199887001980078FF2803D001980078B7
:20653800FE2805D101981021C18015E04FEA0808BDF80C004FF6FF71814205D0BDF80C002F
:206558000199C88008E0C0469DF81C004FF4005108F03EFC0199C8809DF812000199087140
:20657800BDF81000019908819DF8160001994871BDF8140001994881002009B000BD7047A4
:2065980010B5ADF1280D03938DF81C200291019043F25450C2F2000000684FF0FF3113F069
:2065B80093FF019810F07CFA04900498B0F1FF3F02D10C20C0E0C0464FF0FF30059000204B
:2065D8000890049843F64C02C2F20002089952F8200088421DD9C0460498089943F6540295
:2065F800C2F2000252F82000342202FB0100C06A10B9089805900CE00898401C08900498CB
:2066180043F64C02C2F20002089952F820008842E2D843F25450C2F20000006813F050FF4F
:206638000598B0F1FF3F03D1082085E04FEA0808002006900020089004980899884213D9BB
:206658000899069843F64C02C2F2000252F82110401806900698401C06900898401C089019
:20667800049808998842EBD80599069840180690049843F65402C2F20002059952F8200025
:20669800342202FB01002322083000210BF0CDFF2AA013F0FDFE29A143F654030091C2F2C2
:2066B80000030499059A53F82110342303FB0214029B2030083422A20146204612F024FFDD
:2066D800049843F65401C2F20001059A51F820100698342303FB02114860049843F65402D2
:2066F800C2F20002059B019952F82020342058438150049843F65402C2F20002059952F87F
:20671800200034234BF6EF62CDF6AD6203FB0100C26243F65401C2F200010498059A51F89C
:2067380020109DF81C00342303FB021181F8300003990598086000200AB010BD3A2000C0ED
:2067580025732573000070472DE9F04F8246ADF11C0D01F053FD5D4800780EF0A3FB5C4DB3
:206778000024012807D90C3805D0401E0FD0401E012809D906E012F017FF022804BF012108
:206798000C1C06D0296806E005211F2401E003210724284601604F4AD068C0F38150012886
:2067B80004D112680120120E9040044313F024FBDFF828B1DFF82081FF2240185B46401E58
:2067D800471CC8F800007F1E03F8012BFBD1DAF80020002702F0FF03FE2B1CD0D4463B4631
:2067F800012602F0FF05FF2D0ED0A84205D3A94203D806FA05F52C4201D0022062E002F043
:20681800FF022F430BF802305CF8042F5B1C02F0FF05FE2DE7D1092007F022FC3048C0F873
:2068380000A03848012111F081FC374D00264FF00109B04609FA06F0044214D1074207BF64
:2068580006F0FF0141F4C0411BF806005AF82010244805F0C7F9F0B24FF0FF3112F050FADB
:20687800C5F8008001E0042028601B480068761C2D1D8642DED904A813F0AEFA1A4C2078BB
:206898001B4A05901948102104AB10F0A9F8684613F0CAFA6068184902901648CDF80C8025
:2068B8006A4610F0D1F9154951F80D0C20F4F85040F4005041F80D0C114AC1F8FF9F40461C
:2068D800C2F8009007B0BDE8F08FC046F23700202C0C0020A84F0050280C002044340020A1
:2068F800A0380020007FC767081C0000E4350020D9900100983100200D6001000D30094037
:206918002C00094000360020D82D00202DE9F843684E074606F10805674C28684030D0F89C
