:20000000A03A012005AF000039FB021039FB021039FB021039FB021039FB021039FB02108D
:1C00200039FB021039FB021039FB021039FB021039FB021039FB021011FB021002
:20003C00742C002094270020F82B00203C28002000000000F82900207C2C0020F82A0020F7
:20005C00082C0020D0280020A81300001C170000BE170000381700002A170000182C002061
:20007C00FC0600200007002004070020080700200C070020100700201407002018070020DD
:20009C001C070020282C0020D0270020D02B0020FC280020C20F0000540F000030100000A3
:2000BC009E1000000C110000481600006C17000060170000BB2C0020442C00200009002041
:2000DC00142B0020300800208B2C0020B42C002050290020E42B0020A004002020070020A3
:2000FC00CC0E0000080D00003C12000000040020F0160000E8240020B02C0020AC2C00205D
:20011C002407002028070020A42C0020681300007C2B0020EC2500200000000000000000C6
:20013C005809002000000000000000000000000000000000C806002060220020BC080020AE
:20015C00014A031049480310D549031015470310557600005D49031081470310A146031088
:20017C009548031045450310254A031021440310ED47031099490310E148031021490310E7
:20019C005553031089520310CD520310655003108D4E03101D7B00008588000035A3000035
:2001BC000000000059510310ED5003103D9C0000CD4B03102952031011530310A9550310FC
:2001DC007555031069530310DD55031035550310B554031021540310855C03100D56031067
:2001FC004D5D0310A9640310B55B03106D570310E5610310095E0310C55803108560031011
:20021C0071610310B16203109963031055630310FD600310B15E0310F1670000D55A0310B1
:20023C00D559031009630310D963031019640310555F0310C56403104D6203107164031056
:20025C008D64031055640310E16403102975031079720310A16B0310F57203109D740310EE
:20027C00797403102D74031061730310FD7303105574031015750310D96C0310FD740310EF
:20029C00616A0310E17403103D75031079700310F9640310CD6803102D710310C17403108A
:2002BC00F56E0310B973031029670310056E0310C56F0310E1710310A1770310797D031064
:2002DC003D7E031049750310157E0310357D031099760310997C0310257B031071780310FF
:2002FC00B57D0310ED7C0310857E03102D790310B97A0310917B0310B1790310ED7B031035
:20031C00E97D0310617E0310357A0310D57E0310457C0310A57E0310BD7E0310058003103E
:20033C00D9800310E97E031049830310898403108D8103107D820310E58403102B8403104B
:20035C00C5830310918703106188031045880310F1850310B18803107D880310C9880310CE
:20037C001D870310A186031001850310E188031099880310F98703107D960310359C03108A
:20039C00819D0310E99A0310359B0310C19B0310419A0310F18803101D8C0310618F0310EF
:2003BC00F1940310919E0310C19E03103D9E0310699E0310259E0310619D03100D9E031028
:2003DC00819B0310ED93031055990310C9970310D9980310BD950310959C0310C19D03102D
:2003FC00A59E03107D9E0310C9910310118D0000699C0310DD9D031095900310FD9B0310CA
:20041C00CD990310158E0310019D0310E19C0310219D0310419D0310BD9C0310F59D03107D
:20043C00A19D031055980310E1920310999A0310B99E0310559E0310B9C90000ABDE000008
:20045C0039A20310F5DA000069A1031075A20310C59E0310B9A10310F9A1031015A1031023
:20047C009DA2031049E800004B660000757F050051DF000099E70000E591000031A9031020
:20049C00ADA20310D14D0000B9A8031099A503100572000039A803106DA9031089A6031025
:2004BC006DAC031099B1031009AF031059B1031001B103109DA903104DE200001DE2000063
:2004DC0053DE00006DDC0000FBDE00001BDF000015DE00008DDE000025E3000085E30000E5
:2004FC0033DE0000F1B9031075BA031081BB031025CB0000F1870000ADA700002D6B00002D
:20051C0009C1000045A500005DCF0000ADA50000D1C7000051D70000C1DD0000B5AA0000D0
:20053C0061B80000FDCE000059CB0000ED990000E9E000008194000085BE000001E100000E
:20055C00FDE4000055E50000992E00006D3E0000E9C6031015E50000E13F0000D1CC000079
:20057C000995000081C600000977000061E90000C5DE000099CC00009DE300000DB000006B
:20059C009D8D0000D18A000001000000000000000000000000000000FFFFFFFFF0090020A4
:2005BC000400000000000000000000001400000030FD02101800000000180000640600002E
:2005DC00C80900200400000000000000000000002400000018FD02101800000001DF0000C7
:2005FC00080000005407000018060000C1C8021001BB021091EB0210DDE5021081E0021020
:20061C00B9E5021071E502103100000001000000010000002C18000000000000FFFFFFFF33
:20063C00E809002004000000000000000000000028000000B8FC0210240000001E00000059
:20065C001800000000000000CC080000780600009BEC021025E2021005EB021025DE02104B
:20067C00FDE10210E1E402102F000000340000002400280000000000D4080020FFFFFFFFF0
:20069C00100A0020040000000000000000000000380000006CFC0210280000000100000025
:2006BC00100000000000000000000000F7F1021000001A001000000003000000A817000028
:2006DC007A1100000800000036000000780800205C07002009001D00939D00009006002006
:2006FC000100000000001200FFFFFFFF000A00200400000000000000000000001000000091
:20071C0048FD0210180000000000000000001300FFFFFFFF180A00200400000000000000F9
:20073C000000000054000000A0FB02103C000000000001002D000000A8050000DF9A00000C
:20075C0030000000F9E30000540700007C07000059D20210D9DB021059EC0210CDD6021084
:20077C0085DE02104DE5021029E5021030000000000016000000000000000000FF7F0000C0
:20079C0070050020FFFFFFFFF809002004000000000000000000000058000000DCFB021046
:2007BC003400000039FB021001002F00060000000000000020000000010000001BF8021027
:2007DC0028000000CC080000F407000093EC02106DEB02104DEC021029E00210BDE40210F2
:2007FC0099E402102D00000000000000D00900200400000000000000000000001000000014
:20081C0040FC02102C000000000000000000030000000F003C0000000000000000000000F4
:20083C002FF90210100000000800000088160000FFFFFFFF080A002004000000000000007A
:20085C00000000001C000000DCFC021024000000E0070000C009002004000000000000007E
:20087C00000000000C00000000FD02101800000083A10000000000000000000008000000FD
:20089C000100000004000000000000000000140000000000D8120000000019000000180008
:2008BC00240000006DE700000040000000020000A80500000000100055F002100C00000042
:2008DC00513B000000000000B80900200400000000000000000000002000000010FC02104D
:2008FC0030000000F012000001000000A1E9000087970000000000000000170000020000E8
:20091C003100000000002300000015000100000064070000E00900200400000000000000D9
:20093C00000000002000000094FC021024000000081300008409002020000000B814000001
:20095C0000000000000000000000000000000000000000000000000000000000000000007B
:20097C00000000000000000000000000000000000000000000000000090803100101031022
:20099C00890903105D0303100105031089060310D1080310210A0310810B0310810A031001
:2009BC00110B0310510B0310D10A031029100310610D0310890E0310050E0310B50F03101B
:2009DC00D10B0310511003103D10031065100310FD0E0310ED0F0310B50C0310650F031028
:2009FC00111003106910031009120310F5120310AD110310291103105D120310B11203105D
:200A1C0019250310552703108D240310F12603100528031089260310CD2303105928031053
:200A3C00ED1F0310251303100D210310911D0310B12703100D2203109925031019260310DE
:200A5C00A91B0310CF2803109528031039290310052903106D29031099160310C91E0310AE
:200A7C007D1903100D230310C92C03101D2C0310292D0310B52B0310F52C03109D290310A1
:200A9C00CD2A0310452B0310472D0310112D0310412D0310752C031029340310C138031024
:200ABC0071360310A12E0310813303106D380310A93A03103D3A0310C53403101138031017
:200ADC00753A03104D2D031009320310E12F031015390310F939031019310310B13703103C
:200AFC00F5350310B13903105D350310C5320310E5360310693903104D370310253D031002
:200B1C00413D0310F53C0310C93A0310A53C03109D3D0310593D031019430310CD3D0310B8
:200B3C00A14303104D400310093F031061420310CD400310C9430310E5430310C93F03105C
:200B5C0011440310FD4303101F440310A942031019420310E1420310C141031075430310C6
:200B7C0049430310494103101B440310AD0B03101D6700000577000005950000C7E8000097
:200B9C00059800006D7C0000BD790000E59E0000659A00008C2C00206D400021D74000211D
:200BBC0099400021F940002105410021114100212941002141410021074C657900F009F89B
:200BDC0061796940490703D50121044A8903116070BD70B5024908478003002108110440F4
:200BFC002D59000000F019F8E1B26C290BD0042801D0062807D10E490978C90703D1217837
:200C1C00090700D402200B490A780C21114202D0094980220A6003B0F0BDF0B583B00749A4
:200C3C0008470448017840229143017004480047C80000213301002100E200E041160300F0
:200C5C00231B030000F034F800480047577F000000F034F8004800471B880000094B1A7882
:200C7C000824A243002800D022431A70004A1047838E000003490878000701D40248004775
:200C9C0070470000800300215F7E0000044A282090470448012141600348044A41601047F3
:200CBC004F420000005004400060044085420000806B0C490007000F48717047094A0A491C
:200CDC0018235079CB56497EC018814201DD084602E00F2800DD0F20D18909090901014366
:200CFC00D1817047E002002188000021000136360101000102010001030100010401060699
:200D1C00080400000C0100340D01000F10040101140100FF1608000020020000220100FFC1
:200D3C0023010001240100FE250100082602000028010001290100012A0200002C01000F3C
:200D5C002E0200003001000131010008320200FF34010007350102FF3601000037010001C5
:200D7C0038010001390100FF3A01000F3C0200FF3E01010F3F0100014001041F4101000126
:200D9C00420100FF43010080440800004E0100084F01000F50010001510100FF5201000A2F
:200DBC005301008954010001580400005C0400006004000064040000680400006C04000080
:200DDC007004000074040000780400007C040000800100FF81010001820100018301010201
:200DFC008401000154080020BD2C0020BE2C002055080020B52C0020560800205708002047
:200E1C0055E80000B527000059E00000B9D10000CDCE000069B200005DAF0000FD93000088
:200E3C00B9B3000059D4000055CA000015B800006BE90000E1E3000095D80000EDC90000D6
:200E5C0009D7000031D400008DD1000029C70000BDCA000011790000C16C00006BD20000C8
:200E7C00A5B500007DB7000031E800003DE800005F6A0000A9DC000037740000A982000066
:200E9C0031BD0000BD7D000021CA000061E8000039DA0000A1E00000000000000000000046
:200EBC0005350000C1D60000FD980000C9BF0000360001000600000000000000000F0000DC
:200EDC0000000000000000000000000000000300FFFF00000403FFFF0000FFFF0F00E803F8
:200EFC000005401F0310000100000000FF3F0F0008000E0000000000000000000300010FE8
:200F1C000000090100000000000000000000000000000000000000000000000000000000AB
:200F3C0000000000000000000000000000000000AD0000010000000001017101010101016F
:200F5C001101010131010101010180010001100161013B00140063017301720162014301F5
:200F7C000001130106013D01350004011201000100010001000104010401330133013C01FB
:200F9C004401320136000001000165010001350081010001050182018301000166010001F0
:200FBC000001080109010300710030016000110070003102200350048000070010006100D9
:200FDC000000140063007300720062004300000013000600000000000400120000000000C5
:200FFC000000000004000400370037003C02440000000000000000006500000035008100C2
:20101C00000005000000830000006600000000000800090003027102300160021102700225
:20103C0001020202020280020002100261023A004100630273027202620243020002130207
:20105C0038000002000204021202000200020002000204020402370037003C024402000216
:20107C0039000002000265020002350281020002050282028302000266020002000208026A
:20109C00090201037103010301030103010301032203020301030003100300030003000350
:2010BC000003000300030003420300032403060300030003040312032503230325032303D2
:2010DC00040304030003000300034403000300032303000365032100350381030003050317
:2010FC000003000300030003250323030803090303047104020460041104700402040204E8
:20111C000104020400041004610400041404630473047204620443040004130406040004E5
:20113C00000404041204000400040004000451046400000400040004440400040004000448
:20115C000004650400043504810464000504000483040004660400040004080409040000BD
:20117C0021E20000B9D80000D1E70000C1E70000D9B90000DD8000008B98000021BA000072
:20119C0009CD0000A9BC000081A60000699A000049B6000099D2000081730000C179000036
:2011BC0021520000616A0000DBFD021075D7000011DC02103974000099DF000019A60000BC
:2011DC00F9CB000049E1000089BB00008F0000008F0001008F0002008F00030090000001EE
:2011FC008F00010190000002900000038F0001048F0000058F0008048F0000048A00000637
:20121C00510000007F0001003F0004003F0002003F0001007F0002008F0002048F00010275
:20123C0038C40D00C80000008100000032000F0100C50D00900100004000000096000501BF
:20125C00952B0D00C80000002200000032000F020000000000000000000000000000000078
:20127C00000000000000000000000000000000000000000000000000000000000000000052
:20129C00000000000000000000000000000000000000000000000000000000000000000032
:2012BC00000000000000000000000000000000000000000000000000000000007B7374614F
:2012DC007469632D696E7374616E63652D6E616D657D00C07B656D7074792D696E7374612F
:2012FC006E63652D6E616D657D00C0467B756E6B6E6F776E2D696E7374616E63652D6E6142
:20131C006D657D0019AB00001FF9021045F8021059F802106DF8021081F8021095F8021021
:20133C008996000021D0000009C20000E7C80000BDD700006DE5000099DA000041C80000A5
:20135C004FE70000C1E1000015A10000C003000080070000000F0000001E0000003C000030
:20137C000078000000F0000000E0010000C003000080070000000F0000001E0000003C0055
:20139C00000078000000F0000000F0000000000002000000020000000A00000002000000C9
:2013BC0002000100000000000000000000000000000000000000000000000000000000000E
:2013DC000E000000043800000000000000000000000188F94E90550000000000FF07105884
:2013FC000000FC010000000000000000000000000000000000000000E0170000FBBD000025
:20141C00FBBD000021E7000011E7000011DC000051DC000031DC000051E2000001E70000B6
:20143C00000000007817000011E000000997000021E7000011E7000011DC000051DC000056
:20145C0031DC000051E2000001E70000073800000000000000000000000121030F00800055
:20147C00520798E00800C810E4070020640300800500000054070000A814000069E6000042
:20149C0079E6000099E6000089E6000079CD000009D60000E9D100003200000015F90210B2
:2014BC0001E602102DDA021045E7021041D10210C9D30210A5DF02102DE4021061EA0210D8
:2014DC0049C200004E31305F5F637878616269763132305F5F73695F636C6173735F747995
:2014FC0070655F696E666F45004E31305F5F637878616269763131375F5F636C6173735F7D
:20151C00747970655F696E666F45000003380000000000000000000082010810140000842F
:20153C00000000004E90550000000000FFFFFFFF0000000000000000000000003A013A01EA
:20155C0000000000000000000000000000000000000000000000000000000000000000006F
:20157C0000000000000000000000000090140000D8090020040000000000000000000000A6
:20159C0014000000E01500001C00000003048080024000800D2000800E20008006048080DC
:2015BC0007048080FE000000053800000000000000000000000000000000000000000000C9
:2015DC00000000001C0000000000000000000000F4150000000000000800000000000000C2
:2015FC0032334669667465656E446F74466F7572436F6C6C6563746F7200000061BC000022
:20161C000000000000000000000000000000000000000000030800000000000000000000A3
:20163C0000016403000000000000000000000500BD00B700B100BC001C00300038000800B4
:20165C00380102001404C0A00A0480A0090480A008400080FE00000000000000ED74000039
:20167C0073DE000001010100000000000100000000000000000000000000010000000100F7
:20169C00001610160E18151C021203241858030210025831344669667465656E446F7446EE
:2016BC006F7572000200000000000000FFFFFFFF00000000000000008417000095D20000B8
:2016DC00E3E60000000000009017000025D80000F1E6000088B224008813000010000000A1
:2016FC000000000148656C6C6F2C20576F726C64210048656C6C6F2C20576F726C642100FB
:20171C0000A6AAACA4A9A9A399B19ABCB6A8313118191A22311C1E20313134313131171967
:20173C001A21241B1D1F31313331537439747970655F696E666F0000000000000000000044
:20175C00000100000C0E020B040B0A070800110F000120181A18182C34041E00E8160000FA
:20177C00FC150000E0170000E816000005150000E8170000E8160000E014000084170000A1
:20179C00FF000100000000000000000025DD021031C8021075DF0210BBAA00000000000043
:2017BC00020002040201010101090200010200030200010300BE040A00BE02081404C0A0DC
:2017DC00FE000000D8160000AF160000D816000046170000FF0000000000000015B100002C
:2017FC008DB9000000000000000000000100000099E200003DE700000F8D0000B1E20000B8
:14181C0059E5000041E7000079E800000A000000B1DF000057
:20183000F1230000B1460000000000000000000000000000C9DF000071E40000559B0000A0
:2018500035E40000AB8900006B7A000085E400000000000091E90000059E000085A100009A
:20187000D9DB00003586000081E5000045610000657D0500C58F000099D900000000000030
:20189000A5AD000085DB0000617E00000000000000000000000000000000000000000000A7
:2018B000000000000000000000000000000000000000000000000000000000000000000018
:2018D00000000000B9E60000B9E600000000000000000000000000000000000000000000BA
:0C18F000000000000000000000000000EC
:0418FC0029E60000D9
:2019000000B5ADF11C0D0191009000980490049808F046FD42F65840C2F2000000784FF4E7
:2019200080410BF021FDC04642F65840C2F20000007807F03DF840F61411C2F20001086027
:201940000DF044F942F6584040F61411C2F20000C2F200010078096805F0D6FA09F082FB95
:2019600040F61410C2F200000068800949D33CE008F050FE039040F20C10C2F2000080686D
:20198000C16B087B401E0873039854F02BFE029800788DF8140040F20C10C2F20000816821
:2019A0000298D1F898104860029840788DF816009DF8160020B902980DF004F907E0C04682
:2019C0009DF81400162802D102A80DF0F7F89DF81400162809D040F20C10C2F2000080680D
:2019E000D0F89800001D0DF0E9F840F20C10C2F200008068C06B001D0AF056F90028029057
:201A0000B6D140F61410C2F200000068000C33D342F65840C2F20000007805F0B1FC029087
:201A200050B34FEA0808C04602980078D02803DB029806F069FD15E040F20C10C2F200007F
:201A400081680298D1F89810486002980DF0BAF840F20C10C2F200008068D0F89800001D3A
:201A60000DF0ACF842F65840C2F20000007805F087FC00280290D7D140F61410C2F20000E1
:201A80000068400905D32E208DF8140005A80DF099F840F61410C2F200000068400805D305
:201AA00025208DF8140005A80DF08CF840F61410C2F200000068800805D326208DF8140065
:201AC00005A80DF07FF840F61410C2F200000068C00805D327208DF8140005A80DF072F8DB
:201AE00040F61410C2F200000068000905D329208DF8140005A80DF065F840F61410C2F298
:201B000000000068C00908D300208DF815002D208DF8140005A80DF055F840F61410C2F214
:201B200000000068000A08D300208DF8150030208DF8140005A80DF045F840F61410C2F2C0
:201B400000000068400A08D300208DF8150035208DF8140005A80DF035F840F61410C2F26B
:201B600000000068C00A08D300208DF8150023208DF8140005A80DF025F840F61410C2F2ED
:201B800000000068800A08D300208DF8150036208DF8140005A80DF015F840F61410C2F20A
:201BA00000000068C00B01D309F00AFB40F20C10C2F200008068D0F89800006868B308F05B
:201BC00029FD069040F20C10C2F200008068D0F898000068029040F20C10C2F2000080681B
:201BE000D0F8980000210160069854F0FBFC40F20C10C2F2000081680298D1F8981048608C
:201C000002980CF0DFFF40F20C10C2F200008068D0F89800001D0CF0D1FF40F614110020A2
:201C2000C2F2000108600CF0C5FF7DE62DE9F04FA44F83463868416EADF1440D02A888479C
:201C4000A14D05F108042268106C03682BB9D2F84C0580472268106C03689C4801215E6820
:201C600067680170307800F020000B90F868017851B9D2F8582401200021904705F108048D
:201C80002068006C03685E681D890BF0B5FE3046294604F0E4FE2068D0F828240AA964203D
:201CA0009047022023680E90D3F8B800002700780F9738B160680069007804F07DF8012816
:201CC00040F0FA80DFF808822368A81C87B208F110000780D3F828240DF12901E9209047C2
:201CE0009DF82900012805D13D46C5F3022040F0180005E02D1DADB2C5F3022040F00800E2
:201D000006F8010DC5F34011284606F8015D05F05BF9454607900F9FEE619DF828006F80D0
:201D200000280CBF6B486C48DFF8BC916B4EB84609F11001CDF8148006F110030860196817
:201D4000A86121B12068006C00680C308847B06808B180470890624EDFF894A177800AF163
:201D600002000780707B20F00F0040F00300707308F050FC0C905B48BBF1010F0D90304668
:201D80004E461DD0BBF1040F1AD0BBF1000F16D0BBF1050F81460FD0BBF1030F0AD12168F0
:201DA000D1F8D40090F85300D1F83C148847C07B022806D0AA4602E04C480D9001E050460E
:201DC00081460B98002852D06E60687B20F00F0040F0020068737780464F307B20F00F001C
:201DE00040F0070030733978AA23B3FBF1F223684FF47A78B8FBF1F0801A042211FB02F1E7
:201E000009B24143B160D3F8D400D3F8181490F85300884704280DD02268D2F8B82038784D
:201E2000177898FBF0F189B2002F0CBF983101F5F4710EE02268D2F8B8203878177898FB5A
:201E4000F0F1CC3189B2002F0CBF01F5907101F5CC612A4B284C202289B286270F92484316
:201E60000E938000277000F57A60306205E0687B012161F3030068736F6012480F990068F4
:201E80001F4F046D0E988DE803000D9B386802AA4946A0471B49002808800AD41A4991F9FC
:201EA00000001A4F401C08700C983D6054F09AFB05E00C9854F096FB1A2005F083FE11B0FC
:201EC000BDE8F08F780300200C0100206B090020B82900204E9055550E7A5555681500004A
:201EE000A42A0020297A0500A0280020C1390000C02A0020BC070020BC2C00200200430030
:201F00006C060020EC080020740900206C0300202DE9F04FB04C20692289A389216A806DC6
:201F2000ADF11C0D1546C918083106F0D7F8A089DFF88C822169401982B2886D08F108077E
:201F4000401988653868216AD0F8D400A2818A18083290F8836012780DF116000270A089D1
:201F6000022E00F1010080B2A08108D1954A0818083000781070A089401C80B2A0810918EB
:201F80000831096868460160A189091DA181042105F06EFE256900900BF078FEE863256928
:201FA00000980BF019FDA5F84000EA200AF01EFD8A484FF0020B022E80F800B008D178684D
:201FC0004069007820B10BF0CFFF08B10420E0702569E078297C084328749DF916000021DA
:201FE0000CF0E8F985F8460005F17406AE6529899DF916006B6885F84800B5F85C00002699
:20200000401AC0186860A88985F84760800A0CD33868D0F80813284688472569686E20B113
:20202000B5F86800002800F0BE8095F8600060B13868D0F80C13284688472569E86C20B1C0
:20204000B5F85000002800F0AE803868D0F8B8000078002800F08A80A889DFF86CA100F07E
:202060000701022967D16378002B64D16B78002B61D12169B1460DF10E008DF81790283168
:202080000CF062F8216928314D6801A845600E8906810A68026055463B682888401C288020
:2020A000D3F8B8002269436A506E04210DF11702984704F1100638B93868006C03681BB14D
:2020C0009DF8170083F86800216991F83000022812D139683068D1F8D4105A4628302031F2
:2020E0000BF048FB38B93868D0F8D4100DF10E0016310CF029F8216934480078862808D1F0
:202100006888401C68808989207901F0100109F0CDFB3968B8310A68107838B1976C2FB1CD
:2021200020693946884740468168B831D1F89C1130464E4632E026490B78BBB1C0F301309C
:20214000022813D16878002834D179689DF816008968554608702269A888401CA880E0783D
:2021600002F128011C3209F02FFB2569194802681AB128460121904725693968B8310A68BD
:20218000107840B1976C37B1394628468847404625698168B831D1F8A011284688472661FB
:2021A0000BF01CFE08E03868D0F8541204F110008847266108F052F807B0BDE8F08FC046D6
:2021C0000C010020050600201C080020BC2C0020B92C00206C15000028290020B72C002061
:2021E0002DE9F04F814E3068416EADF12C0D02A88847754C754DA178E06902290DD160B125
:20220000002009F003F930684168E0698847E9688969012008700020E0616D494FF0010A13
:202220004FF00008083584F802A00F68CDF814801FB1384680470890E06900282ED108F017
:2022400095FFD8B108F092FF012817D008F08EFF052813D008F08AFF0C280FD008F086FF22
:202260000D280BD008F082FF0B2807D008F07EFF0E2803D02868D0F84C058047306800F154
:20228000200128B92868D0F84C05804731682031096804F1200088474E48E0630BF022FA9D
:2022A0002968D1F8D40090F85300D1F83C14884707462868D0F8D40090F9420009F05EFA98
:2022C000454BB0F1FF3F04D0010828BF4FF6FF70188039897A68491E4A43396818464FF4A5
:2022E0007A791A3801EB5201C0F8048042464280B1FBF9F10184417B6AF303014173017B6C
:2023000083466AF3C71101732868D0F8C4038047F8B9B88931496F68B9FBF0F0C0B20870A4
:20232000796899FBF0F008702868D0F8D40090F85300022806D00AF03FFB032809D105216A
:202340005C2001E00221A820254A1170696809680870E36937682169DFF888901BB34046D3
:2023600009F054F82A686178E069D2F8D420376892F85320914209D07968884768688069F5
:2023800080F800A03068216906680DE0022142468DE806003E6D4346594602AAB0471248B2
:2023A000C0F800B006E03E6804F1200348465A46B047E0612868D0F8D40090F853000BB0E9
:2023C0006070BDE8F08FC046500600200C0100207015000054F100808A280020BC07002061
:2023E0003C0A0020382400206C030020780300202DE9F047DFF8B4910E46D9F808101F46C6
:2024000015460446ADF1300DBEB1B5B130784FF0010808FA00F001420FD01046002109F0F3
:2024200011F9A560666008F0F5F8614D82462878022804DB504654F0D5F80020B2E0002842
:202440006CD101F02BF95B495B4E086840F00200086008A8C9F800600CF0DEF8574E5849EA
:20246000707808AA0A9005F5927009F0A7FF554905F5AC7008AA09F0A1FF08A80CF0A4F846
:20248000192108AB3078504A099005F1540009F0FBFE4E4A05F170001A2108AB09F0F4FE61
:2024A0004B49002205F1AC00134609F0CAFC4949002205F1D400134609F0C3FC4648006827
:2024C000C0F3814030B1454A05F12800042100230AF05EFFB078012802D10E2004F052FCC7
:2024E00005F194000BF072FF05F18C000BF06EFF002185F8241029762962072085F8F0016B
:2025000085F82510364B1970A9600526E960354A2E610420EA610BF0AFF8287805EB800152
:20252000401CC1F8FC40C0B22870504654F05AF81FB968460BF07EFF6F4638684FF4FA760E
:20254000E6602060B86941466062388A6175E082F869E062786800280CBF40F6C4100021B0
:2025600020612148E06120622175A061F86800B1E061786900B12062B86800B1A06180223D
:2025800004F13000002107F080F904F1480000210AF0A4FD1549002204F18000134609F045
:2025A00050FC20460CB0BDE8F087C046CC210840401A002000200940110000E09C170000CF
:2025C000E1DF00004D66000055AE0000959D000019D90000A1DB0000B44F0050B5B4000029
:2025E0005A2C0020155900000F5100007B7300002DE9F04F8246ADF11C0D01F04FF85D48B8
:20260000007808F0B3FD5C4D0024012807D90C3805D0401E0FD0401E012809D906E00BF024
:20262000AFFC022804BF01210C1C06D0296806E005211F2401E003210724284601604F4A6A
:20264000D068C0F38150012804D112680120120E904004430BF0C8FFDFF828B1DFF8208104
:20266000FF2240185B46401E471CC8F800007F1E03F8012BFBD1DAF80020002702F0FF0322
:20268000FE2B1CD0D4463B46012602F0FF05FF2D0ED0A84205D3A94203D806FA05F52C4273
:2026A00001D0022062E002F0FF022F430BF802305CF8042F5B1C02F0FF05FE2DE7D109204B
:2026C00004F060FB3048C0F800A0384801210AF005FD374D00264FF00109B04609FA06F05B
:2026E000044214D1074207BF06F0FF0141F4C0411BF806005AF82010244802F097FFF0B243
:202700004FF0FF310BF0E8F8C5F8008001E0042028601B480068761C2D1D8642DED904A8D3
:202720000BF052FF1A4C20781B4A05901948102104AB09F0A9FD68460BF06EFF6068184936
:2027400002901648CDF80C806A4609F037FE154951F80D0C20F4F85040F4005041F80D0C68
:20276000114AC1F8FF9F4046C2F8009007B0BDE8F08FC0468A2C0020A4090020A84F00500C
:20278000A00900207829002034240020007FC767F01700006C2A002031DB00000828002071
:2027A000EDBC00000D3009402C000940882A0020702500202DE9F843684E074606F1080596
:2027C000674C28684030D0F89410237891F8839023B1D0F80C0580472868403001680B6853
:2027E00013B9D0F80C058047A04601205D4C88F80000012F277044D9BF1E73D07F1E2AD0A2
:202800007F1E5CD07F1E0FD07F1E53D12968096C096891F86D20628191F86E7007B90746CE
:20282000A77009F043FE5FE0B9F1010F5CD106F108052968D1F8D420096C09680020C98A76
:202840002071C90934BF92F8251092F84E1061700BF02AFF48E00027B9F1010F27710DD107
:202860002968D1F8D40090F85300D1F83C148847C07B022802D1384605F0E2FB09F034FEB4
:2028800032E0002006F1080520712868D0F8D410006C0068C08AC00934BF91F8250091F824
:2028A0004E006070B7B9CF78A7B10228C4BF022060700FE02868D0F84C05804714E0286869
:2028C000006C006890F86910217190F86A0060700027677103F056FB2868006C006818B957
:2028E000BDE8F88305F03AFF2148007898B92868403001680F682FB9D0F80C058047B068D8
:20290000006C07687A682178107800F02000E0709078A07100E02178032903D0022918BFE6
:20292000062918D107F076FE217802290CD00E49097811B90D49097831B1022188F8001066
:2029400053F050FEBDE8F883832188F8001053F049FE09F091FFBDE8F883C0460C0100202C
:20296000BC2C00200C080020B72C0020B92C0020592C00202DE9F04F694DA869416EADF105
:202980002C0D02A88847DFF87C81DFF87CB198F9000038B1594691F90000002818BF0020EB
:2029A00040F0AC8007F036FE584F0A903878800808D27D20002104F007FB079000248DF849
:2029C000184001E000240794564E06F11400016809B138788847F06808B1804708900594A5
:2029E00003218DF818104A4EB4607480F27E307B0127B94669F3000264F30300F276454B74
:202A00003073F27E307B67F34102F27640F080003073F07E64F38200F076F07E64F3C3006B
:202A2000F076F07E64F30410F076F07E03F1080A61F34610F076DAF80000D0F8282406F190
:202A40001C01F4209047A869374A076D334B32484FF080718DE803001068314602AAB8472E
:202A60006880002848BFA14644D4594691F900002E4F401C0870DAF8001001F1AC0297F9B4
:202A800000001368EE60401C38701F7898F90000401C88F8000007B18024B5F84400176899
:202AA0004FF67F7303401C432043A5F844003A78337E62F3C7133376D1F8D400C28CA5F836
:202AC0005220428D00F14404A5F85020226805F147073A6060687860D1F8D400C18C718686
:202AE000418D00F144033186196806F128052960586868600A9853F075FD48460BB0BDE81E
:202B0000F08FC0467609002075090020B82C0020582700200C01002020004300F175050055
:202B200060030020681500006C060020740900202DE9F04FDFF878918346D9F80000416EE8
:202B4000ADF12C0D02A888475A4D05F10804226840321068006820B9D2F80C05804722689B
:202B6000403255484FF0010A676880F800A0F868007840B9D2F8182450460021904705F1BA
:202B8000080422684032106800684768058939782846C1F3401104F017FA484E079006F1C3
:202BA0001000016821B12068006C00680C308847B046D8F8080008B18047089007F084FB07
:202BC0003F4EF57337610025758007F023FD0A904F4605953BF0010B758031D139484580FA
:202BE0004660417BC37D022262F303014173017B65F30301017323F00F0141F00401C17527
:202C000049F64043C3617560717B6AF30301717321684031096809684B681B789B0908D327
:202C2000294B7360496889789973717B62F30301717326494860487B65F30300487300E096
:202C400031463868076D224808222B468DE80C00204B006802AAB8471F490028088019D5DF
:202C6000D8F8000078B1D8F8180060B18047022809D12068006CD8F80040006829460A466C
:202C800013460C30A0470A9853F0ACFC1A2004F099FF09E0114991F90000114F401C087064
:202CA0000A983E6053F09EFC0BB0BDE8F08FC046780300200C0100206B0900206815000039
:202CC000642B002098290020BC2B0020380900206C060020297A0500EC0800207409002011
:202CE0006C030020F8B56B4D05F108042168064614310868407F002800F0CA80D1F8C000AA
:202D0000B6F84220C08C904240F0C280D1F8581306F128008847002800F0BA80206840696E
:202D20000027477721687031486E90F8290028B16068816A0220884721687031086890F87E
:202D40002B0018B16068816A01208847307C400908D36068816A102088472068D0F82813CF
:202D6000802088476068C16B202088472168C868D1F8FC141030884770682268417852696A
:202D8000007800EB0120C0F30321517622685269C0F3003393762268526900F00F0393778C
:202DA000C0F303132068D0F8D40080F82C3022680C32D2F8C81091F84F000F2806D0936808
:202DC0009B7F984202DD7368DB780BB19068807F4873106880F83070D2F8C800417B0F296E
:202DE0000BD19068C07E022852D1D2F8580180472068D0F86C018047F8BDD2F800253046EC
:202E0000904723680C339868C07E022817D1D3F8F014186888472268D2F8D4001169447B42
:202E2000D06831F81430D2F8F0244FF4707707FA04F1C91A904705F1080423680C33D3F89E
:202E4000C8003289D3F8A83190F82C1002209847206800F11401D1F8C020D0F8D400527BE6
:202E600090F82C0082420FD00868D1F8E81488472268D2F87C015169886050694169D2F857
:202E8000F0249047A9681431D1F8141310208847F8BDC0460C0100202DE9F04F664E80464B
:202EA000B068D0F80001807AADF12C0DC0000BF08FFC06F108070028089008BF1A2500F05E
:202EC000B78007F0A7FB00244FF0FF0B25460A9027E0ADF800808DF80240D2F88823D02058
:202EE00069469047D8B99DF80C00012802D19DF80B1019B998B99DF8071081B1002814BF72
:202F0000082304230DF103005B1E00F801BBFBD105703868D0F894246946D0209047641CDA
:202F2000E4B23A6802F580721068C07AA042D0DC06F108073868D0F80001C0884FF6FF74C1
:202F4000B246A9461EE0089901EBC0018B8898451CBF401CC0B262D1C1F800908C801268A3
:202F6000D42004A9904702E0761CB6B227E03A680AF108073868D0F800016D1C02F580726F
:202F8000EDB2C088A842D8BF4D464BDDADF80080ADF80250D2F88823D120694690470028DE
:202FA000E5D1BDF804008442E1D0ADF810003868D0F8882404A9D420904790BB4E463A6869
:202FC00002F580721068C088B04210DDADF80080ADF80260D2F88823D12069469047002829
:202FE000C2D1BDF81000BDF804108842BCD13868D0F80001C088B042B9D1ADF81440ADF88E
:20300000164006A85946082206F03FFCDAF80860386800F29442D6F80001867A48468642EB
:2030200091DC19250A9853F0DDFA08980BF0C8FB28460BB0BDE8F08F0C01002001282DE912
:20304000F84F40F0B080DFF88491D9F8F800012840F0A6800220C9F8F8000AF077FD01202B
:2030600009F0D2FB5FEA000805D00120C9F8F8000AF07AFD99E011200BF0B6FB00280CBFD0
:203080000025012510200BF0AFFB08B145F002050F200BF0A9FB08B145F00405444CA06ABC
:2030A0000068014601208847012805D099F8FC00012818BF002703D1002001F06BFD01274A
:2030C0000BF08CFBDFF8ECA040080AD20026206A80680146504688478346BBF1040FF6D055
:2030E00000E00126304600214FF0FF3202F0A2F9012E0ED0BBF1010F05D1206A4068012142
:2031000002465046904732496C39086840F003000860206840690146284688470B200BF0F4
:2031200063FB254E28B12068C06A311D0246088890470A200BF058FB20B12068C06A0146F4
:20314000308888471D4903200126C9F8F8001C4B0E6000221A602068406B01462846884757
:203160000128F8D1174C2068042009F04DFB0546154806602068012F02D1304601F00AFD06
:203180000BF016FB082009F03FFB0746C9F8F8600AF0EAFC57EA050018BF4FF0FF3804E00B
:2031A0006FF0040801E06FF001084046BDE8F88FB801001000400340121200002820086089
:2031C000800104432C2009400C40094020010020902208402DE9FF41614C04F18C010868CD
:2031E000002588460028074650D0D4F8A000002851D1D4F89C0000284FD0D4F89C103869C9
:203200000969884203D197F83300400931D2019502A8012101AA05F091FE00283BD0029931
:2032200011BB50480668002E35D0D4F89C00D4F8A01008F108034246B047022807D00128F8
:2032400029D10120009001992B46084605E001230093D4F89C00D4F89C100069B1F930109B
:203260002A4601F063FB16E004F1AC000AF0E3FF11E0D4F89C00C06840880028F9D0D4F816
:203280009C00C06840880128F3D006E004F59270022109F0ABFE002D5FD060683969884280
:2032A00055D1294603A80A4605F048FE58B1039848B1D4F89C0030B9D4F8A00018B90820F0
:2032C00009F0C0F949E008200AF094FC97F8330004F59275C0F3001028B940460AF080FA01
:2032E000C4F89C0004E040460AF07AFAC4F8A000B8691D49C0430860B8694A681043486082
:20330000F869C04341F8080CF86951F8042C104341F8040CFC68082039460AF0ADF9204675
:203320000AF086F92088A0F6020040B141F21E01401A04D041F6E671401A012803D8012056
:2033400021460AF099F94FF08041284603E004F592704FF4806109F049FE0090BDE8FF8115
:20336000401A0020FC170000101004402DE9F04F564E04463068416EADF14C0D02A8884762
:203380005C4D08352868D0F8D4005B4F90F8838007F11000016809B100208847B86808B1F3
:2033A000804708904A484C490378002B00F08380484A137833F07F037DD1C888474BDFF825
:2033C0002091B8F1010F00F10100C88008D0002005909860197B60F303010120197312E03A
:2033E00049468C60087B20F00F0040F0030008730A7B012060F3C7120A7300244C604A7B1E
:2034000060F303024A731C463C496B680870D9680B7823B92968D1F8582400219047B8F14E
:20342000010F01D10AF0E8FA07F0F4F81290DFF8B4A0DFF8B4B0E07B3546B8F1010F14D16F
:203440002868416E0AA88847B868002608B180471090B9F810000D96314603F0B5FD0F9027
:20346000286849460AAA022509E000266680314603F0AAFD07902868214602AA0825076D71
:2034800053468DE8600018685B46B8471749002808800CD41A4991F90000B8F1010F00F117
:2034A0000100087014BF211C494611480160129853F098F806E00A89521C0A8100210170B9
:2034C0000AF038FC13B0BDE8F08FC04678030020B92C0020BC2C00201C080020642B002036
:2034E000B82900206C06002049710000EC0800206C0300200C010020681500006B0900209E
:20350000740900202DE9F04F634C08342168D1F8D40090F88360403108680068ADF1140D35
:2035200020B9D1F80C05804721684031886FDFF84CA1DFF84C91DFF84C81007898B907F044
:2035400069F85146097841B94946097829B9832241460A7053F046F873E0022241460A7067
:2035600053F040F87CE04A4D012E0DD1D1F89400D1F8FC1390F853008847C07B022803D1B8
:20358000281D007804F05CFD08F0AEFF3E4E30683E4F016C38688847834607F03BF8039069
:2035A00050460378002B4FD14846007800284BD12068D0F8B800C16C002088472068D0F8F1
:2035C000282402A9F42090479DF9080058451DDC6B79DBB9039853F005F82878042803D0E3
:2035E0002068D0F84C058047042140466F7926680170781C6871D6F8B800C16C09B10320D4
:203600008847032068810AF087FB29E08321404632680170536C38686A46002198471D48A1
:20362000BDF90010B0F90000884214BF0020012007F0ECFE039852F0D5FF6168E87909690F
:20364000087009F019F90BE0022140460170039852F0C8FF2068D0F8B800C16C0420884716
:203660006068C068007828B92068D0F8582400200146904705B0BDE8F08FC046B72C002015
:20368000B92C0020BC2C0020780300206C0600200C080020640300200C01002057482DE953
:2036A000F043006842F21072ADF1140DB0FBF2F1514340F2AB22401A824200F29B805B4C07
:2036C00094F80601002840F093804D484D4E4FF00108027B3368416884F80681814684F86D
:2036E0000521C3F38147C4F83011BFB9D9F81000A0B156F8085C0BF049F864210246C5F30C
:2037000006604143B1FBF2F23F49002304F15C0008F097FB3D494FF00040086001A80BF098
:20372000CDF800252F4604F10C00029501AB8DF80470374903953A4608F083FB01A80BF03B
:20374000BDF804F134000822029501AB8DF804703049039508F075FB2F4A04F18400322167
:203760003B4608F091FD2E4A2C4F04F1A0002C212B463D6008F088FD2A4899F80D3000782A
:203780003068C0F381501BB1032803D184F8FD8003281FD002281DD001281BD14FF08059EB
:2037A000D9F8A401204C406803214FF040521C230746009129462046B847D9F8A40140687B
:2037C00029464FF4007209230746CDF800802046B84706E0386840F040003860022009F0F9
:2037E000FDFA56F8040CC00802D2284609F0F6FA002000E0FEE705B0BDE8F0831C1400504F
:2038000074160000B44F005061E1000000A10C407765000069BA000021D5000090220840AD
:20382000E19A00008A2C002000A00C4020010020F8B5074661485F4C001DC26A0168B7F55E
:20384000C067C2F30722C4F8D470C1F38441C4F8D820C069C4F8DC10C0F38120C4F8EC0069
:2038600000F0A38094F8F4606EB9C4F8F070D4F8DC00C4F8E400D4F8D860C4F8E060D4F8FE
:20388000EC50C4F8E850D4F8F000D4F8D850002854BF02236FF0010304F1E402116800EB46
:2038A0004000C018431000EB937001EBA0011160D4F8E410C4F8E05000291CDD1E293DDD82
:2038C000D4F8E80030B93429B4BF15391E21C4F8E41025E02A29BABFD4F8E4000B381E203C
:2038E000C4F8E400D4F8E0003E28D4BF401C3F20C4F8E0001FE0D4F8E800032812D011F16A
:203900000A0FA6BFD4F8E4000B300120C4F8E400D4F8E0000028CCBF401E0020C4F8E00004
:20392000032009E011F1140FA6BFD4F8E40015300120C4F8E4000020C4F8E8004FF0805761
:20394000D7F8A401B4F8E0101B4D40684FF47F4208230646009128463021B047D7F8A40111
:2039600001214FF40032112340680091064604212846B047D7F8A401B4F8E41040684FF46E
:20398000F80212230646009104212846B047D7F8A401B4F8E81040684FF440620A23044675
:2039A000009120212846A047F8BD002084F8F400F8BDC0462001002000A00C4000A00C40C7
:2039C0002DE9F84F584C009008346068C0684FF0010B80F800B05548002505702068894629
:2039E000403001681E460B68174613B9D0F80C0580475048DFF83881D0F800C0B8F80230BC
:203A0000BCF1000F09D02068006C006819463A4633460C30E04740464388DFF81C81DFF85E
:203A20001CC1DFF820A1022015EA060200EA070008BF002826D128464FF0E24300EA07014D
:203A4000334008BF00290ED14FF4860020233840334008BF00284CD00098494633463A4602
:203A600053F0C6FD45E0414691F900206746521E0A703978862902D009F03EFD39E009F0DB
:203A800085F836E0414691F90000401E0870C3B92B494A8843F2084328464646934204D1C6
:203AA000097CC910490838BF584602F0B7FB5046057096F9000058B396F9000000282DDCB9
:203AC00021E0B3F5505F12D120481F490068634600F5C07008601878862802D009F070F8CC
:203AE00005E00098494633463A4607F083FD0AF0BFFA50464146057091F9000040B191F900
:203B0000000000280ADC2068D0F84C05804705E02068D0F858242846014690476068C06802
:203B20000570BDE8F88FC0460C0100206C090020B82900206815000074090020BC2C0020F9
:203B4000A42A00206B090020A82C0020280100212DE9B047924698460A68DAF800401378D3
:203B600081460020ADF1140D242B02F101020A6006D0662B20D1B8F81810012912D117E0BC
:203B80000A6813784C2B02F101020A6000F08480462B55D0532B17D0662B0DD1B8F818101B
:203BA000012905D0E41D24F00704083404E0C046E41C24F00304241DD8F81C100B704FF0AE
:203BC000010EC8F80CE086E0B8F81800012807D0E41C24F00304241D54F8040C06E0C04658
:203BE000E41C24F00304241D54F8040CC8F81C00CAF80040B8F818000090D8F80810D8F81F
:203C00001C20D9F8000053460AF0D0FFD9F800704FB1D8F808108142D8BF481ED9F800106B
:203C20000918C9F800100022DAF80040D8F80010C8F80C20091AC8F800104CE04FEA08082A
:203C4000B8F81810012907D0E41C24F00304241D54F8041C029106E0E41C24F00304241DEE
:203C600054F8041C0291E41C054624F00304241D54F8040CD8F8082003904946ADF804502F
:203C800001A80AF08FFFD8F80010C8F80C50091AC8F800101FE0C046B8F81800012807D037
:203CA000E41C24F00304241D54F8040C06E0C046E41C24F00304241D54F8040CD8F80820B0
:203CC00049460AF06BFF0022D8F80010C8F80C20091AC8F80010CAF8004005B0BDE8B0877D
:203CE0002DE9F8435F4CDFF868815B4DD4F8000100286ED0574E401E0AD0401E60D0401E64
:203D00001CD0401E53D0401E1AD0401E33D02FE04E4801250221006884F8FE5070220423B4
:203D200040680091002107464046B847356004F1340001F057FF2846BDE8F883022100E0C1
:203D400003214FF08059D9F8A40184F8FE1040680025702204232946074600954046B847CB
:203D6000D9F8A401C0687022294613460125DAE70320BDE8F88300262E606E602868800887
:203D8000FCD268688008FCD2374834490127001D06600E200F6002F02FFF022009F006F8B2
:203DA000C4F8006184F8FF600220BDE8F8830520C4F800010027376030688008FCD242E019
:203DC0000320C4F800010027376030688008FCD239E0234F01260F202E6042F62A21C7F8A6
:203DE0000B004FF08059C7F80F10D9F8A40140684FF4C072072302218446404600910021E0
:203E0000E047D9F8A401C06800214FF4C072072384464046E0472E6028688008FCD394F8A5
:203E2000FD00C7F81B6018B9032100200E4602E0002028630321C4F8006147F8011C6860F0
:203E400068688008FCD20020BDE8F883A401001000A00C4058600C4054600C4004800C4087
:203E600001400C402001002038500C402DE9F04F5A4CA068D0F80001807AADF12C0DC00043
:203E80000AF0A6FC04F108050028089008BF1A2400F0A08006F0BEFB0A90286800F59162EE
:203EA000D0F8000100894FF6FF780026A146A346C24609E0584680682268D0F80001761CA2
:203EC00002F59162B6B20089B042D8BF00247BDD5C4608342068D0F80001C07A012700254C
:203EE0004CE0ADF81480ADF8168006A8FF21082205F0CBFC2068D0F8942404A9D4209047EE
:203F00002068ADF80480D0F894246946D120904722680BF108042068D0F80001C0886D1C45
:203F2000EDB202F5916234E0ADF800608DF802501268D02069469047A8B99DF80C000128ED
:203F400010D19DF80B0068B90DF102020820002112F8013FFF2B03D1401E01F10101F7D112
:203F60000829A7D00027226809F108042068D0F800016D1C02F59162EDB2C07AA842D3DCAC
:203F8000002F97D109F108042068D0F80001C0880025A8428EDDADF80060ADF802501268FB
:203FA000D120694690470028B2D1BDF804008245AED0ADF810002068D0F8882404A9D4208F
:203FC000904700288DD019240A9852F00BFB08980AF0F6FB20460BB0BDE8F08F0C01002061
:203FE00010B5ADF1100D0090002001900098007841F29C61C0F20001085C8DF808008FE0AD
:204000000098807800283FD100980099009A007A9DF80830097A127C00F0700001F007015C
:204020000411480000EBC400C018801824308DF808009DF8080007F0F3FC002801907BD09C
:20404000009901981CC91CC00EC980E80E00019801991830486001980099406849681CC98D
:204060001CC01CC91CC00EC980E80E00019801994068243048610198009A00994069127C7B
:20408000496904F02BF857E000988078012853D19DF8080024308DF808009DF8080007F031
:2040A000BFFC0028019047D0009901981CC91CC00EC980E80E000198019918304860019879
:2040C0000099406849681CC91CC01CC91CC00EC980E80E0030E0C046009801902CE0C046CE
:2040E0009DF8080007F09CFC0190019878B9009800780C280BD10098406840B10098001D33
:204100000AF05CFD9DF8080007F08AFC0190019890B1019800999DF8082003F0DFFF0BE01C
:2041200000980078401F3FF46BAF0838D4D0401FD2D0D5E74FEA0808019838B1019942F685
:204140005B40C2F20000007803F03AFC04B010BD08B540F6D000C2F200000078012800F0E6
:20416000A68042F6C24040F6C801C2F20000C2F2000120F00300086040F6C800C2F200004A
:20418000026842F69041C2F2000143F6A020C2F20100801A086040F6C800C2F2000000682D
:2041A00040F6CC01C2F20001086040F6C800C2F200000068009042F6904140F6C800C2F27A
:2041C0000001C2F200000A68006800998018884216D94FEA0808C046009800210160009865
:2041E000001D009042F6904140F6C800C2F20001C2F200000A680068009980188842EBD80A
:2042000042F6904140F6CC00C2F20001C2F2000009680068890800EB8100001F009000980D
:204220000021016040F6CC00C2F20000006800900098E821016040F6CC00C2F2000000682E
:20424000E830009042F69040C2F20000026800996FF0EB00920800EB82000860009842F66E
:204260003C41C2F200010860002000F0D1F842F64041C2F20001086040F6CC00C2F200003F
:20428000006842F63C41C2F20001086042F69040C2F20000006840F6C001C2F20001001FF5
:2042A000086040F6D0010120C2F20001087008BD2DE9F04F4A4C494DDFF82881E068ADF195
:2042C000340D854206D1414691F90000002818BF00267ED106F09EF983464948002600F17C
:2042E000080ADAF800006E80D0F8B8000078002804BF4FF486000B9602D042A003C80B9184
:204300000A90A069416E02A888470320DFF8D8908DF8180099F800000596800807D27D20A9
:20432000314602F051FE8DF81860079000E007962E4F07F11400016811B14846007888472B
:20434000F86808B180470890AE60294F287B2F6266F30300274A2873A3690B990A981F6DE5
:20436000254B8DE803001068294602AAB847002860802BD4414691F90000204FDAF800303A
:20438000401C087097F90000401C387003F1AC000168E5600F7807B18026B4F84410806A98
:2043A0004FF67F720A4016433143A4F84410C18CA4F85210418D00F1440704F14705A4F88E
:2043C000501039687868296001266860584652F009F930460DB0BDE8F08FC046A02800205D
:2043E0006003002075090020B82C00206815000000C422646C060020F17505007409002037
:204400000C01002000004F8C200000010AF0E6BA00B5ADF11C0D00900020019000208DF877
:2044200010000098001D0090FFE7009800F003008DF814009DF8140028B19DF8141000984A
:20444000401A001D009009F0EBFE42F63841C2F2000108600098102806D842F63C40C2F28F
:2044600000000068029005E042F64040C2F20000006802900298006803904FEA0808C04613
:204480000398000808D3039880F00040039000208DF810001DE0C0469DF8100080B1029898
:2044A0000199026808688018086001990098096888420ED80198029002980068039015E080
:2044C00000980399884211D901208DF810000298019003990298401802900298006803905E
:2044E00003980028CCD100200290FFE7029800282FD000990398401A03900398042817D331
:2045000000990298401805900398059908600098029940F000400860009A40F6C001C2F28A
:2045200000010868801A086010E04FEA0808C046029A40F6C001C2F2000112680868801AFD
:2045400008600299086840F0004008600298001D029042F63840C2F20000006809F0ACF95D
:20456000029807B000BD70472DE9F0470646880FC0F09080002006F07DF947480AF03CF83D
:20458000464C40F60A09A4F8009000256580207B05F00F0120F00F00014321736560607BD3
:2045A0004FF0010808F00F0720F00F0047EA00013046617300F0ACFDD6F808A04A46214604
:2045C000D01F574600F1010C00E027467C6834B123889A4203D0984218BF9C45F5D17960B0
:2045E0007A7B2F4C05F00F0322F00F0213437B73D4F88C3033B1DA681288904224D0604629
:20460000904221D0338E03B3756306F13002558096F83C0005F00F0320F00F00034386F8D6
:204620003C3096F83D0008F00F0320F00F00034386F83D304A60487B05F00F0620F00F0053
:2046400046EA00054D7300E0A56009F007FF1548E06194F8250080B9134800680168404647
:20466000884701280FD0787B08F00F0120F00F00014379730D4EE66105E007F023FC002854
:20468000FBD007F015FA504609F0B6FF5146404608F0F2FFBDE8F08701010E04942B0020F0
:2046A000401A00204D710500E0010010FDAD00002DE9F0414D4C05462078002800F08D803A
:2046C000B4F9AA00B4F9A81088421DD004F18C0128460E4608F0BCFC70B9D4F89C10284664
:2046E00009F092FF28B906F10801284608F0B0FC01E0D4F89C0038B1B0F930100A224FF0B7
:20470000E043284601F064FE05F084FF804604F1FC000168A94219BF0027476000270760FE
:204720002078401EC0B22070002846D16560207E02280ED1082007F085FF404651F052FF1B
:2047400005F148004FF0FF3109F023FF05F062FF804604F5927007F091FF04F1540005F0B5
:2047600069FC04F5AC7007F089FF04F1700005F061FC04F1AC00FFF749FE04F1D400FFF7EC
:2047800045FE17490968384601F44021B1F5802F03D114490968890C00D318B104F13C00D8
:2047A00008F04CFB04F1280009F0A6F80E480078012802D10E2002F01FFA606805F14806F7
:2047C000854208BF6760404651F00CFF304607F069FA05F18000FFF719FEBDE8F081C04643
:2047E000B44F00508C1300509E170000401A00202DE9F04FADF1140D02921D460191DDF8D6
:204800003CB00E9C009005F005FF474A6FF0010800264FF0010992F8F0A1039009FA06F367
:2048200013EA0A0F71D0B5F1FF3F18BFAE426CD1F0B209F031FE002867D0877A002F64D1AB
:2048400092F8F01183F0FF030B4082F8F0314F468772009D467292F8F2110560491C82F8BE
:20486000F211019B03722E4F4760017A074601291ED0022924D140F20361018290F9093025
:20488000C17C5B1D21F00F0103F00F030B43C3746379817C63F3C7018174C17CA37963F31D
:2048A0004611C174C17CE37963F30411C17407E00A20388297F90900401DB874A068786165
:2048C000BBF1000F08BF002012D09BF801009BF8001097F90960134C4FF6FC75800040EA65
:2048E0004110711D40EA012005EA000144EA0100B861029800B17860506808B9386850606A
:2049000005F0F0FE97F9098002E0761C032E85D3039851F067FE404605B0BDE8F08FC046F8
:204920000F51000001000406401A00202DE9FE4F0CAF1D468B465FEA02083E78009014BFD4
:204940004FF0804A4FF0005A05F064FE0324DFF800910190BBF1FF3F14D1D9F89C1000985A
:2049600009F052FE58B9D9F8A010009809F04CFE00280CBFD9F88C70D9F8A07008E0D9F827
:204980009C7005E000985946002207F0DBFC0746002F57D097F8330030F07F0051D04C4648
:2049A000D4F89C00B84217D0D4F8A000B84213D000982A463346394604F042F8002840D0FF
:2049C000207E01283BD0207E042838D0214904F5927008F00BFB32E0D4F89C00534600229B
:2049E00007F0CEFCD4F8A0005346002207F0C8FCB8F1000F14BF1848184808F019FEB6B153
:204A0000D4F89C0000224FF0807307F0B9FCD4F8A00000224FF0807307F0B2FC3869C4F86C
:204A20001C0194F8200140F0010084F8200135B1D4F88C1000982A46334604F001F883247B
:204A400000E00424019851F0CDFD2046BDE8FE8F401A002002000040010002040100010449
:204A60002DE9F043414C424E424FA178E069ADF12C0D01290DD160B1002006F0C7FC30687C
:204A80004168E0698847F9688969012008700020E061356802214FF001090837A17058B99E
:204AA00025B93868D0F84C0580473568296A04F1200088473048E06308F014FE3868D0F857
:204AC000D40090F9420006F059FE0A90B0F1FF3F08D00290000834BFBDF808004FF6FF709B
:204AE00026490880264D002068808046C5F80480687B69F303006873287B69F3C7102873AF
:204B00003868D0F8C403804730B91E4910207B680870596814230B70E06937682169D0B15E
:204B2000404606F073FC3068416E02A8884716480068CDF8148008B1804708903068066D88
:204B400008278DE88001E069294602AA4346B0470E48056006E02A460D483D6804F1200329
:204B6000A847E0610BB0BDE8F083C04650060020780300200C01002054F10080EA290020F6
:204B8000D8290020BC070020701500006C030020382400202DE9F843434D444C3E4EDFF8AD
:204BA000FC80DFF800910746012F44D139480068006801460120884701283CD096F8FC0038
:204BC000002838D108342068C0F38140C8B940460068B0B154F8080C000834BF4FF480502E
:204BE0004FF440502E4908600A2008F06EF84846006901460120884706F15C0000F0F2FF19
:204C000001E008F089FB0121206886F8FC10C0F3814010B94046006848B909F0DFFD800979
:204C200005D28020A860286840F080002860032008F0D4F82BE057BB05F0E8FBA068C0F396
:204C40008140A8B94046006890B106F15C0001F051FB2068000834BF4FF482514FF4415105
:204C6000134A48461160006910B101460020884796F8FC0058B12868802720F08000286096
:204C80000320AF6008F092F8002086F8FC000020BDE8F883E00100102001002084160000BA
:204CA000A8A00C407416000090220840AC4F005028A10C402DE9F843444CD4F89400D4F86F
:204CC000945004F1940900287ED00646F06840F603020827531C02E040687F1EFFB260B182
:204CE0005FB101888A4218BF8B42F5D131694CC830314CC189C881E8890005F1280090E8F0
:204D00000C00002705F12806B84686E88001A96879B13E464FF0E24006EA020110EA030738
:204D20000EBF002932400340B5F93010AE682869B04705F06FFC0646B4F9AA00401C6FF37B
:204D40001F30A4F8AA006FF0020785F8338048462F8608F045FD304651F044FCB4F9A8005D
:204D6000B4F9AA1088422FD16068D4F8FC60D4F8007190F8A81000290CBF0520072004F061
:204D8000B9FA40462EB196F8A85005B9306886F8A88046462FB197F8A85005B93E6887F8A3
:204DA000A880864238BF061C66B1B6F1FF3F0BD009F0ECFCB6FBF0F104F1D40009F03BFAA9
:204DC000BDE8F88308F0ECFEBDE8F883401A0020F0B5444C08342168F4310A68064692F8D0
:204DE0004400ADF1140D82281ABF92F84400401C002082F84400086890F8441000EBE1000D
:204E000090F82C104A1080F82C2048080AD22168F4310A6892F84400401C82F84400C0B20A
:204E20008128E8DB2268F432116844310878812849DAD2F83C23E120904725684FF6FF73D7
:204E40000220ADF80830F4352A688DF810009778BFB921480068214B4FF47A71B1FBF0F085
:204E60001F49002202F0E8FA002832D02068D0F8F4001A2141702A2737702068D0F84013DF
:204E800025E0022F1CD0012F19BF07208321082080210027009749320192D5F8845202AA39
:204EA000A847DB2807D0E52805D0F32803D0DF2818BFE8280DD12168D1F8F4104870DAE7BE
:204EC000D5F8741303E02A203070D2F84C123046884705B0F0BDC0462818000080090020F3
:204EE000A15E00000C0100202DE9F04F002788460646ADF1140D039705F08CFB384D049002
:204F0000A8693D4CC36C2068052103AA9847684609F09AFADFF8CC90CDF80880DFF8CCB080
:204F2000DFF8D0A0DFF8C880009629F0010926F00106B14519D02C4820F00100B0420ED100
:204F40009BF90010AB69206811F1020F22D059469A6B91F900109047812819D013E04046EC
:204F60008068D0F84C05804719E09AF90010AB69206811F1020F0DD051469A6B91F900100B
:204F80009047812804D040468068D0F84C058047AB692068DB6A69463A4698470746002F04
:204FA00004D540468068D0F84C058047B14507D00D4820F00100B04204BF5846077001E0EC
:204FC000504607700120AF6903902068FB6C052103AA9847049851F005FB05B0BDE8F08FA1
:204FE000600300209DCE000061C70000690900200C010020680900206C0600202DE9F0476C
:20500000DDF820801D4691460E46044606F0AEF801270E2804D006F0A9F80F2818BF0027A9
:205020005FEA070A17D12088A0F6020040B141F21E01401A04D004F11A003060E06903E0B2
:2050400004F1120030606069C9F8000000202860C8F8000058E02088A0F60200E8B141F283
:205060001E01401A16D041F6E671401A04D0A26AE06A94F8247002E0226A606A002704F14B
:205080001A013160E169C9F800102A60C8F80000207E0FE0616AA06A01E0A169E06904F174
:2050A000120232606269C9F800202960C8F80000E77B207C00F00704286880B140F20371F5
:2050C0004FF6FF72052308F03BF90646052E06DA3846214604F025FE296841F82600D8F8AB
:2050E000000088B140F203714FF6FF72052308F027F90446052C07DA3846FF2104F011FEDE
:20510000D8F8001041F824005046BDE8F08770470346B0B50020ADF1180D02460746019032
:205120005C7D02923A4803920068049200F44020B0F5802F04D137480068800C38BF0127DE
:20514000986842800188A1F60201C9B141F21E05491B15D041F6E675491B012920D8417E7A
:20516000012C62F38201417606D0018B21F47C7141F43471018313E0018B62F30911F9E7E3
:20518000417C012C62F38201417405D0018A21F47C7141F4347102E0018A62F309110182FD
:2051A0005A7504A902AA03AB009101A9FFF726FF50B1019800884FF6FF71814204D10298BA
:2051C000049904F0C9FE03E00298049904F070FDE7B10298C8B10B214FF6FF72502308F004
:2051E000AFF80446502C11DA09F07EF907F0D6F909490A4F08603968C968884702990004CE
:2052000040F00B0041F8240000E0FEE706B0B0BDB44F00508C130050541A0020E00100104D
:2052200010B5ADF1080D8DF801108DF8000000208DF8020000208DF8030040F6B800C2F2EA
:2052400000009DF80310007888423EDD4FEA08089DF8032042F2F801D000C2F2000100EBAB
:2052600002109DF80020085C82420ED19DF803409DF8010042F208130022E100C2F20003E9
:2052800001EB041100B101225A549DF8032042F20811D000C2F2000100EB02109DF802204D
:2052A000085C0021104300D001218DF802109DF80300401C8DF803009DF8031040F6B8007B
:2052C000C2F2000000788842C2DC9DF80200B8B940F6D100C2F200000078012823D10120C1
:2052E00007F064FD022007F061FD40F6D101C2F200010878401E087015E04FEA0808C04688
:2053000040F6D100C2F20000007860B9012007F065FD022007F062FD40F6D101C2F2000192
:205320000878401C08709DF8020002B010BD70473F482DE9F04F001FADF1140D00F19C0104
:2053400000F18C0B8046029100F1A00103914FF4804009F05BF8E8B14FF00450D0F8981358
:20536000D8F8046090F88503C3F38857C1F31501C0F38002C1F31501B8050143B06841EA47
:20538000C2716A4601F08EF8D8F804008168012008F072F9002702260DF10409234D04970D
:2053A00059F8044F236883B32068806909F02EF8824620680023524606F0E2FF1AF00A0FF3
:2053C00008D1BAF1000F20D0206847F48047C8F8A4001AE020681449AB688069014023EA33
:2053E0000100A8602068C1692A6822EA010028602168102008F040F921680BF1080008F05C
:20540000CAF8049847F002072060761EC8D127B108F59270394607F0E9FD02F07DFCFDF7AF
:20542000D9FE05B0BDE8F08FFDBFFFFF0C100440441A00202DE9F04717468846814605F0F0
:2054400019F8394C3148DFF8C8A00026343C0660DAF8000020688169272088472E4D2D48B8
:2054600005F1140211680840106028465C30006820F48070E8652068016B4FF48060884756
:205480002068016B4FF4816088472068016B4FF4C0608847214901200860C5F86481204901
:2054A000086022480C3050F80C1C890805D2B7F1FF3F08BF4FF040473E460660DAF80000D7
:2054C00028688008FCD32068416B072088470228F9D1B9F1010F13D0206A124E81683046E1
:2054E00088470428F8D0012804D1206A4268032130469047D5F8FC0120F00300C5F8FC01AF
:205500002068806B8047BDE8F087C0460C4009402C200940FFFFFEFE2820084028200860CB
:205520008001044300400340EC0100101000094000B5ADF12C0D0990684608F001FF0020DF
:205540008DF8180042F6303000216A46C2F2000009F020FB42F63030C2F2000009F09CF9A3
:2055600042F65441C2F20001086042F2E060C2F2000008F0F1FE42F200714FF40060C2F236
:205580000001086042F2F8610320C2F20001086041F2402042F2FC61C2F20000C2F2000148
:2055A0000860099842F2F061C2F20001086042F2E06241F6011142F290600023C2F2000284
:2055C000C0F20001C2F2000009F0E0FA42F29060C2F2000009F06CF942F65041C2F20001DD
:2055E000086008F06DFF42F6504042F65441C2F20000C2F200010068096840F61812C2F2F4
:20560000000200F0F1FA42F65841C2F20001087042F65840C2F20000007809F0B3FA42F6D5
:205620005840C2F2000000780BB000BD2DE9F84F0D4606465FFA85FA280824BF3448454046
:2056400034494FEA8A033448CA5806F4E02C06EA0507BCF5E02F00EA070085EA020406EA51
:20566000040422EA0602C4F3006740EA020001D1420E14D306F4E022174310D000F4E0278A
:20568000B7F5A02707D0B7F5803704BF20F4003040F4A02003E020F4803040F4C0201F4C3C
:2056A000DFF87C80012202FA0AFBC4F800B008F1D007C8503968002002FA0AF40C4218BFBF
:2056C000101C5FEA000906D1F00D04D34146C5F3805001F80A00300E0BD304F09BFF290EAE
:2056E00034BF0021211C3A68A2431143396050F079FFB9F1000F06D0F00D04D34046C5F38C
:20570000805100F80A100548C0F800B0BDE8F88F006000A000100840007F077FE020026006
:20572000002002403B482DE9F8430068C06B8047394E04460C36306840680178304800880D
:205740000831484305F056F9DFF8B890804699F80000830008FB03422B4C04F10C052978E2
:20576000022060F3030129703168A2604968274D0978083189B203FB012305F10C021178B3
:2057800060F3030111702248AB600178002767F30301017006F06CFE20B91C2002F012FADA
:2057A000BDE8F88304F10C01087867F3030008703B46A36033684A465868117800788E0074
:2057C00005F10C03083082B206FB02F01E7826F00F0242F003021A70A860287C01264FF4D1
:2057E000FA5340F0080028742A7CAB6166F304122A7408FB01F0678007F0E0FBBDE8F883FC
:2058000016080020BC070020C02A0020A42A0020C4290020780300200C0100202DE9FF4144
:20582000384E08363168D4310868002490F883803548364D04702D1F2C706C7034480470BF
:2058400068692C6128B1D1F88011686988473168D431B8F1010F05F1140703D0C86AC08961
:20586000103002E0C86AC0890E30D1F87C1180B28847686120B93068D0F84C05804768690B
:2058800000908DF804409DF8050064F301008DF805009DF80500B8F1010F64F383008DF881
:2058A00005000BD09DF8050064F307108DF805003068D0F80001C089103009E09DF8050009
:2058C00064F307108DF805003068D0F80001C089ADF80600694638680A6802604968416006
:2058E000686928626C6201F0CFFB7068C068007828B93068D0F8582420460146904700907B
:20590000BDE8FF810C010020B72C00202C290020B92C002070B5324C0D46A8084FD2E80801
:205920005DD301250420657007F058FA2D480068006B8047A060606804F18C060146306892
:2059400070B10069064649B18E4207D0716AC90803D3036A04210022984775753146616099
:205960004868214900780860022007F037FA112001F008FA1D480078257610B90E2001F05F
:2059800001FA60684168886808B9C86810B1184808F032FE17490720002608601649184B9A
:2059A0000E60164D4E600A68E36145EA020008601A2005F0AFF8192005F0ACF870BDFFF74E
:2059C00079F9204600F19401096811B904F08AFE70BD00F5927045F0020107F007FB70BD30
:2059E000401A00208C010010D02108409E17000051000706000004601410044002400040F6
:205A00006945000007F072BC00B5ADF12C0D8DF829108DF828009DF8280042F68841C2F24A
:205A200000010870684608F07FFC01208DF8180042F6DC2000216A46C2F2000009F0AAF8BA
:205A400042F6DC20C2F2000008F01EFF42F68441C2F20001086009F091F842F68441C2F2FC
:205A60000001096840F69812C2F2000200F0BCF842F68941C2F200010870102005F0D0FF57
:205A80000990099800B30998D0210170099800214170099942F68940C2F2000000788870DC
:205AA00009980021C17009980021017109980021816009980021C16042F68840C2F2000085
:205AC0000999007801F07CFF9DF8290008B108F057FF012008F068FD42F66C41E220C2F262
:205AE000000108F099F942F68440C2F2000000680BB000BD09F03AB800B5ADF14C0D109054
:205B000000214022684603F0C0FE109880788DF800001098C0788DF801009DF8000000285B
:205B200032D11098406820B11098416801A804F0DBF91098C06811901098007A00F00700F5
:205B40008DF828001098007A00F0700000118DF830009DF8280038B111980B909DF8281099
:205B6000119800EB410011909DF8300008B111980D901098007C8DF83800109840690F901A
:205B800026E04FEA0808C0461098406820B11098416801A804F0A8F91098007A8DF8280031
:205BA0001098407A8DF829001098807A8DF82A001098C07A8DF82B001098007B8DF82C001E
:205BC0001098407B8DF82D001098C089ADF82E0040F69C10C2F20000006801696846884707
:205BE00013B000BD08F0BEBFADF1100D02920191009040F6B800C2F2000000780F2857DABD
:205C000040F6B80140F6B800C2F20001C2F200000B78017842F2F802C2F20002D80000EB9B
:205C20000310115440F6B800C2F200000099037842F2FC02C2F20002D80000EB0310115017
:205C400040F6B800C2F200000199037842F20412C2F20002D80000EB0310115040F6B80068
:205C6000C2F20000037842F200120021C2F20002D80000EB0310115040F6B800C2F20000FF
:205C8000037842F208120021C2F20002D80000EB0310115440F6B800C2F200000299037871
:205CA00042F20C12C2F20002D80000EB0310115040F6B801C2F200010878401C087040F677
:205CC000B800C2F200000078401EC0B204B070472DE9F04F364C054608342068D0F8D40023
:205CE00090F88390606880690078ADF12C0D01284ED107F0E5FC00283FD104F08BFC83466D
:205D00006068254B2B4EDFF894808069022700259A46B9F1010F077031685D8007D0496E9B
:205D200002A8884740460068059548B106E0496E02A8884740460068059508B180470890B3
:205D40003068174A066D174BA8468DE880011068514602AAB047002803D52068D0F84C053E
:205D600080471149114F91F90000C7F800A0401C0870584650F036FC0AE0606880690178C1
:205D8000012905D10021012D017001D008F00AF80BB0BDE8F08FC0462809002070150000BD
:205DA0006C06002089950000740900206C0300200C010020780300202DE9F043364D083536
:205DC0002A680446D432106890F88300ADF12C0D01284DD169680120DFF8A480C96888F8A2
:205DE0000000097819B9D2F8842300219047204604F0AAFC04F00EFC284F244E0024814615
:205E0000B81C06F1180304801868416E02A888471C480068059408B180470890B0691A4A76
:205E2000D0F850C002238DE81800194B1068394602AAE0470028B08010D5404604704846E5
:205E400050F0D0FB6868C068007828B92868D0F8582420460146904720460DE00D4991F95B
:205E60000000F760401C0870484650F0BBFB02E0204604F069FC01200BB0BDE8F083C046D8
:205E80006C090020701500006C0600206003002035A90000740900200C0100204C2B002094
:205EA000F8B5314C324D6788AFB9A868D0F8F4002E4BC18F012606FA01F08102A1EB801195
:205EC00018784FF47A7201F570714843B0FBF2F081B2A18000E0A1882078B9421ADD2548C0
:205EE0000068254F016C386888472178C0B28142B8BF20706088214F401C608038684FF49E
:205F00007A71B1FBF0F01E4904F10803002201F093FAF8BDA968D1F8F46040B207F071FCCA
:205F200096F84410B2695054A868D0F8F40090F8441000EBE1004279012701F0070107FA6F
:205F400001F181F0FF01114041710023638004F10800237004F010FEA868D0F8940000785F
:205F6000042100F07DFDF8BD78090020BC0700200C010020780300206C06002028180000BF
:205F8000A15E00002DE9FC410020364D8DF8000008352868D0F8D4002C4C90F8838008F023
:205FA000E4FC6278012191404FF6FF72521802402868D0F8B81062810878002829D08A6B39
:205FC0003AB342F21A0069469047214827790678CEB1C7B99DF80060AEB12868D0F8B80016
:205FE000C06D80B1804707461A48017857B16868406866890078083010FB01F0B7FBF0F1A6
:206000007018608127799DF80010608907FB01006081207810B907F071FE01E007F07CFEEC
:20602000B8F1020F10D10C480D49007848B90B48007830B983220846027006F01DFCBDE8D5
:20604000FC81022208460270BDE8FC810C080020592C0020BC070020B72C0020B92C0020F9
:20606000BC2C00200C0100202DE9F8433048344C00682778C06B8047A168401AB900B0FBE2
:20608000F1F5E16860680026B1464A468846454572EB090201DA884207D8024633464946C8
:2060A000954299413EDA114600E033460A46521BB341104619463A46FB1708F02DF8054607
:2060C0001C480E4601680A69C88A4B4612184FF000016432AD1A9E416842B14122DA1648AD
:2060E00002683146284603F0DEFF0E4605464FF000016842B14115DA08F092F806462069C0
:2061000008F02CFB10B1206908F034FD304607F0D3FB2069294608F029FD206908F022FDFC
:20612000002000E0012005490870BDE8F883C046780300206C06002028180000BA2C0020DF
:20614000BC0700202DE9F04116468846044604F061FA07462F488325B8F1090F34D8DFE852
:2061600008F0504946433E2716053A350446207EE0B9D4F88C00C8B9316804F5927007F031
:2061800031F8316804F5AC7007F02CF83BE00446207E58B9D4F88C0040B93168192004F0E2
:2061A000A5FD31681A2004F0A1FD2CE000252AE0306828B1012807D1802006F043FA22E056
:2061C000802007F017FD1EE003251CE02020314607F052FA17E031780F48017013E0316804
:2061E0000446103421600EE0308820850BE03088E08208E001202669607506F160002061FB
:2062000001E030682060384650F0ECF92846BDE8F081C046401A0020301C00202DE9F0412B
:20622000314DA868324CD0F8D420217892F8838031F001070BD0042909D0032907D0052935
:2062400005D0D0F84C058047A868D0F8D420274E042127793170791CC9B2217192F8242072
:206260008A423CDBB8F1010F02D103F0C7F8A8682178042908D1D0F8B8100F7827B1C96C2A
:2062800011B102208847A868D0F8D420617892F831204B1C9A42C4BF491CCAB2B8F1010F6B
:2062A000627005D1006C01684868098900F0D7FB207803280DD0052807D1B8F1010F11D11D
:2062C000207908F0F1F9BDE8F081FFF75BFEBDE8F0818320307007F067FFBDE8F081E12011
:2062E00001F070FCBDE8F0810C010020BC2C00200C08002008F03EBC00B5ADF11C0D0292C0
:2063000001910090009807F07FF8049000980499C068401A401E0590029808B1059818B956
:20632000002052E04FEA080805980299884201D2059802900098009980684968884207D251
:206340000099009889684068401A401E039005E0009900988968C068401A039003980299D6
:20636000884219D3009900988B68029A00680199C01801F0B3FE009A00980299D36880683B
:20638000009A4018B0FBF3F15943401A906002981BE04FEA0808C046009900988B68039AF1
:2063A00000680199C01801F099FE03990298401A06900098039B0199069A0068C91801F0AB
:2063C0008DFE069800998860029807B000BD70472DE9F8430446994690460E1C44BF0020B1
:2063E000011C5BD406F006FC054631468022204605F0A8FF071C04D097F8331031F07F0189
:2064000006D1284608F0AAFB02200021BDE8F8834FF0E0400A2107F1200640EA090941EA28
:20642000080896E8030008EA000019EA010608BF00281CD0284608F091FB07F1200003C81F
:2064400004F1780604F1780508EA000809EA010986E8000395E80C0007F1200696E80300C7
:2064600007F120059943904385E8030013E00C48B968884202D0B9682167B86004F16800BE
:2064800080E80003284608F069FB04F148004FF0FF3108F07EF8783494E80300BDE8F88362
:2064A00031AC0000F0B50E460021ADF1140D0191029103911446049103AB02AA04A90091E6
:2064C00001A9FEF79BFD8325310824D2E0B1039F87B10499C6F3150271B1019840F22B219D
:2064E0000280384606F0EDFE0298049903F0E0FB039826E0C6F3150240B1019800884FF6EE
:20650000FF71814202D132E0C6F31502019802806280102029E0002829D00399A9B10499A9
:20652000C6F3150699B101984FF6FF720280084632462B2106F0C5FE0298049903F00CFD6E
:20654000049815212180606012E0C6F3150670B102982B21324606F0B4FEFF2807D0019884
:206560004FF6FF71018066601420208000E00325284605B0F0BD704700B5ADF11C0D0292AC
:2065800001910090019806F03FFF8DF818009DF8180008B1029818B9002054E04FEA080801
:2065A0009DF818000299884202D29DF818000290002003900199019849688068401A23D0EA
:2065C0000199019849688068401A039002990398884201D203980290019901984B68029A80
:2065E00001680098C91801F079FD019A01980299D3684068019A4018B0FBF3F15943401A28
:2066000050609DF808001EE0019901984968C068401A049001990198049A4B6801680098B0
:20662000C91801F05BFD04990298401A0590049B00980199059AC01801F050FD059801994D
:2066400048609DF8080007B000BD70472DE9FE4FDFF8C48098F8F101002851D0002501213A
:206660002C4698F8F12101FA04F0104203D1641C032CF6D344E098F8F1211020A040104251
:2066800018BF0D1C03F0C6FF98F8F1211121A14081F0FF01114088F8F1114FF0A3FFE0B2D6
:2066A00007F0FAFE60B3877A57B390F9099019490768012D446851F82960019710D0017A3B
:2066C00002290DD100F1100191E8000C00274FF0805317EA0B0703EA0A0108BF002901D124
:2066E00003F052F8012D04D0009600224FF0006303E000224FF00073009201984946A047A9
:2067000098F8F10120B108F5AC70002106F06EFCBDE8FE8F94300440401A00206D20704794
:2067200000B5ADF10C0D0191009000984422002103F0ABF801990098283105F0BDFF009842
:2067400001990A30323105F0B7FF01980099C06B486101980099B0F840000883019800997A
:20676000B0F84200488301980099B0F8440088830198009990F8460088770198009990F882
:206780004700C8770198009990F9480081F820000198009990F8490081F821000198009908
:2067A000B0F85000488401980099C06C486201980099807B81F828000198009990F8520033
:2067C00081F8290001980099406DC862009801990B2230301C3101F081FC019800990089D9
:2067E000A1F84000019800994068C86303B000BD2DE9FF410546DFF8C4806878F32853D071
:20680000DF2851D0E8284FD0DB284DD0404600F108042068D0F8FC1128468847071C42D1AE
:20682000687C00283FD095F8340000283BD12268B83210680078002835D1D2F87C2105F159
:20684000120109209047061C2DD02068D0F8302405F10B01E72090472068D0F8302405F1E8
:206860000801502090472068D0F8302405F10A01E12090474FF6FF7202202768ADF804201B
:20688000AB7A8DF80C00D7F8C04100932B8901A93046A0470746F32F05D0DF2F03D0E82FE8
:2068A00018BFDB2F06D16F7040468068D0F80412284688470090BDE8FF81C0460C010020D0
:2068C000BCB5324D0C3D688908B9012068812D4C083461682A4F496823680978083148434B
:2068E000397848430090D3F8B8100878002843D00A6C002A40D0486C00283DD0E91D684631
:206900009047074629796A781F48652F24D0E7B92068403001680A68117D05292CD1D0F8EC
